S010000070617373776F72642E73726563A1
S11300000C943E000C945B000C945B000C945B001D
S11300100C945B000C945B000C945B000C945B00F0
S11300200C945B000C945B000C945B000C945B00E0
S11300300C945B000C945B000C945B000C945B00D0
S11300400C945B000C945B000C945B000C945B00C0
S11300500C945B00F20100020E021C022A02380218
S11300604602540262027002F402020310031E03E9
S11300702C033A03480356036403720311241FBE7E
S1130080CFE5D8E0DEBFCDBF10E0A0E6B0E0E0E40D
S1130090F8E002C005900D92A83BB107D9F720E023
S11300A0A8EBB0E001C01D92AD3BB207E1F70E949E
S11300B09E010C941E040C94000080EF8ABB8FEF09
S11300C08BBB089584E090E060E041E050E02BB306
S11300D0206F2BBB7BB39A01082E02C0220F331F63
S11300E00A94E2F7209527232BBBE9EFF0E0319740
S11300F0F1F700C0000029B32F702F3029F089B325
S11301008F708F30E1F705C06F5F01966430F9F6A8
S11301104CC0643009F44BC06130C1F028F0623047
S113012039F16330B9F145C02B3061F018F4273050
S113013059F004C02D3021F02E30E9F18FEF0895ED
S113014084E0089581E008958AE008952B3061F0F9
S113015018F4273059F004C02D3021F02E3069F105
S11301608FEF089585E0089582E0089580E0089572
S11301702B3061F018F4273059F004C02D3021F0F1
S11301802E30E9F08FEF089586E0089583E0089516
S113019080E008952B30A9F018F4273091F003C0C3
S11301A02D50223070F08FEF08958FEF08958FEF68
S11301B008958FEF089587E0089588E0089589E011
S11301C0089580E0089595B3282F207F9F70922B87
S11301D095BBA898A998AA9A35E83A95F1F7000032
S11301E0AA9895E89A95F1F7000025B330E1839F2A
S11301F0C0011124922F9F70892B85BBAA9A85E890
S11302008A95F1F70000AA98089595B3282F207FC6
S11302109F70922B95BBA89AA998AA9A35E83A950B
S1130220F1F70000AA9895E89A95F1F7000025B334
S113023030E1839FC0011124922F9F70892B85BBCD
S1130240AA9A87EC90E00197F1F700C00000AA9801
S113025008958FE097E20197F1F700C0000084B39E
S11302608FEF84BBAA988FE99FE00197F1F700C054
S1130270000083E30E94E30095E89A95F1F70000FB
S113028082E30E94E30085E88A95F1F7000088E2A2
S11302900E94E30095E89A95F1F700008EE00E9431
S11302A0E30085E88A95F1F7000081E00E94E3000D
S11302B08FE99FE00197F1F700C0000086E00E94FB
S11302C0E3000895CF93DF9300D000D0CDB7DEB71D
S11302D090E8998390EC9A8390E99B8390ED9C83BA
S11302E06150FE01E80FF11D8081860F0E94E3003A
S11302F087EC90E00197F1F700C000000F900F9099
S11303000F900F90DF91CF910895CF93DF93EC017D
S11303108881882331F021960E94050189918111F9
S1130320FBCFDF91CF91089581E00E94E3008FE934
S11303309FE00197F1F700C0000008950E94290191
S11303400E945D008FE087BBC59A812C912C0F2EF3
S1130350F9E34F2EF02D00E610E0342CB59902C1DC
S11303600E94940161E081E00E9462018EE690E0C7
S11303700E94850165E082E00E946201C82DD92DAA
S11303800F2EF8E35F2EF02D0F2EF7E36F2EF02DD6
S11303900F2EF6E37F2EF02D0F2EF5E3AF2EF02D6A
S11303A00F2EF4E3BF2EF02D0F2EF3E3CF2EF02DFE
S11303B00F2EF2E3DF2EF02D0F2EF1E3EF2EF02DB2
S11303C00F2EF0E3FF2EF02D0E9462008093BC00FC
S11303D090E08A30910508F090C0FC01E65DFF4F83
S11303E00C94F1036C2F6B5F82E00E946201FE01AA
S11303F0E05AFF4FF0828F2D0E94050121967DC0A7
S11304006C2F6B5F82E00E946201FE01E05AFF4F95
S1130410E0828E2D0E94050121966FC06C2F6B5FC8
S113042082E00E946201FE01E05AFF4FD0828D2DCE
S11304300E940501219661C06C2F6B5F82E00E94CF
S11304406201FE01E05AFF4FC0828C2D0E9405011B
S1130450219653C06C2F6B5F82E00E946201FE0103
S1130460E05AFF4FB0828B2D0E940501219645C0B2
S11304706C2F6B5F82E00E946201FE01E05AFF4F25
S1130480A0828A2D0E940501219637C06C2F6B5FD4
S113049082E00E946201FE01E05AFF4F7082872DC4
S11304A00E940501219629C06C2F6B5F82E00E9497
S11304B06201FE01E05AFF4F6082862D0E94050111
S11304C021961BC06C2F6B5F82E00E946201FE01CB
S11304D0E05AFF4F5082852D0E94050121960DC0E0
S11304E06C2F6B5F82E00E946201FE01E05AFF4FB5
S11304F04082832D0E9405012196C430D1050CF45D
S113050063CFF80101900020E9F73197AF0140561D
S11305105040682D792DC8010E9407049FEFE4E341
S1130520FCE09150E040F040E1F700C000000E9480
S1130530940161E081E00E94620181E890E00E9400
S1130540850161E082E00E946201C8010E94850188
S11305502FEF84E39CE0215080409040E1F700C0FD
S11305600000FCCE0E94940161E081E00E946201DF
S113057080E990E00E94850165E082E00E946201CA
S1130580C82DD92D0F2EF8E35F2EF02D0F2EF7E393
S11305906F2EF02D0F2EF6E37F2EF02D0F2EF5E3A8
S11305A0AF2EF02D0F2EF4E3BF2EF02D0F2EF3E31C
S11305B0CF2EF02D0F2EF2E3DF2EF02D0F2EF1E3D0
S11305C0EF2EF02D0F2EF0E3FF2EF02D0E9462008F
S11305D08093BC0090E08A30910508F090C0FC0143
S11305E0EC5CFF4F0C94F1036C2F6B5F82E00E9474
S11305F06201FE01E854FF4FF0828F2D0E94050135
S113060021967DC06C2F6B5F82E00E946201FE0127
S1130610E854FF4FE0828E2D0E94050121966FC0A1
S11306206C2F6B5F82E00E946201FE01E854FF4F71
S1130630D0828D2D0E940501219661C06C2F6B5FC5
S113064082E00E946201FE01E854FF4FC0828C2DBB
S11306500E940501219653C06C2F6B5F82E00E94BB
S11306606201FE01E854FF4FB0828B2D0E94050108
S1130670219645C06C2F6B5F82E00E946201FE01EF
S1130680E854FF4FA0828A2D0E940501219637C0AD
S11306906C2F6B5F82E00E946201FE01E854FF4F01
S11306A07082872D0E940501219629C06C2F6B5FF3
S11306B082E00E946201FE01E854FF4F6082862DB1
S11306C00E94050121961BC06C2F6B5F82E00E9483
S11306D06201FE01E854FF4F5082852D0E940501FE
S11306E021960DC06C2F6B5F82E00E946201FE01B7
S11306F0E854FF4F4082832D0E9405012196C430A7
S1130700D1050CF463CF2FEF84E39CE021508040AB
S11307109040E1F700C00000F80101900020E9F7E3
S11307203197AF0140565040682D792DC8010E9481
S1130730F703E8EBF0E09081F801808198133DC065
S1130740E9EBF0E09081E1E6F0E08081981335C0B8
S1130750EAEBF0E09081E2E6F0E0808198132DC0AE
S1130760EBEBF0E09081E3E6F0E08081981325C0A4
S11307700E94940165E081E00E94620180EA90E0B9
S11307800E948501E4E6F0E0819188BB2FEF81EEC1
S113079094E0215080409040E1F700C0000020E048
S11307A0ED36F20789F78FEF94E3ECE08150904047
S11307B0E040E1F700C00000D1CD0E94940162E066
S11307C082E00E94620189EA90E00E948501FFEFC5
S11307D024E38CE0F15020408040E1F700C00000A9
S11307E0BDCDEE0FFF1F0590F491E02D0994DC01BF
S11307F0CB01FC01E199FECF06C0FFBBEEBBE09A42
S113080031960DB20D9241505040B8F70895DC0175
S1130810CB0103C02D910E94120441505040D0F7E7
S11308200895262FE199FECF9FBB8EBB2DBB0FB63B
S1130830F894E29AE19A0FBE01960895F894FFCFD6
S11308403030303000010203040506070809656EE4
S113085074657220746865206E65772070617373A7
S1130860007061737320686173207361766564003E
S1130870656E7465722074686520706173733A00E4
S1130880636F7272656374200077726F6E67207095
S10B0890617373776F72640059
S9030000FC
