S02B00006D6561737572652074656D7065726174757265207573696E67207468656D6F636F75706C6520746510
S113000012C02CC02BC02AC029C028C027C026C0BB
S113001025C024C023C022C021C020C078C01EC077
S11300201DC01CC01BC011241FBECFE5D4E0DEBF21
S1130030CDBF10E0A0E6B0E0E8E6F7E002C005902E
S11300400D92AC36B107D9F720E0ACE6B0E001C0C0
S11300501D92AA37B207E1F725D184C3D1CF9B0102
S1130060AC0160E072E18AE790E01DD3CA01B901F6
S1130070EFD17CD27093700060936F006031710592
S113008009F154F464307105A9F068307105B1F0D8
S11300906230710531F50AC060347105D9F06038F9
S11300A07105E1F060327105E1F410C081E08093E4
S11300B06C0017C082E080936C0013C083E08093CF
S11300C06C000FC084E080936C000BC085E08093CB
S11300D06C0007C086E080936C0003C087E08093C7
S11300E06C0014BA80E487B996B180916C00892BB6
S11300F0886886B97894089597B18770987F982B0B
S113010097B9369A80916D0090916E0008951F9270
S11301100F920FB60F9211242F938F939F9384B154
S113012025B190E0922B90936E0080936D00369AE7
S11301309F918F912F910F900FBE0F901F90189544
S113014098B3282F207F9F70922B98BBC098C1989A
S1130150C29A35E83A95F1F70000C29895E89A9565
S1130160F1F7000028B330E1839FC0011124922FDE
S11301709F70892B88BBC29A85E88A95F1F70000A5
S1130180C298089598B3282F207F9F70922B98BB14
S1130190C09AC198C29A35E83A95F1F70000C2981E
S11301A095E89A95F1F7000028B330E1839FC001E8
S11301B01124922F9F70892B88BBC29A87EC90E000
S11301C00197F1F700C00000C29808958FE097E20C
S11301D00197F1F700C0000087B38FEF87BBC29887
S11301E08FE99FE00197F1F700C0000083E3A8DFE7
S11301F095E89A95F1F7000082E3A2DF85E88A95F5
S1130200F1F7000088E29CDF95E89A95F1F7000089
S11302108EE096DF85E88A95F1F7000081E090DFB3
S11302208FE99FE00197F1F700C0000086E088DFC6
S11302300895CF93DF9300D000D0CDB7DEB790E818
S1130240998390EC9A8390E99B8390ED9C83615011
S1130250FE01E80FF11D8081860F72DF87EC90E0CC
S11302600197F1F700C000000F900F900F900F90CE
S1130270DF91CF910895CF93DF93EC018881882398
S113028029F021967FDF89918111FCCFDF91CF91F5
S1130290089581E055DF8FE99FE00197F1F700C0F1
S11302A00000089568E478EE81E090E0D8DE8EDF07
S11302B061E081E0BEDF80E690E0DDDF80E01CDF0E
S11302C0909372008093710060917100709172003C
S11302D080E090E0BDD020E030E04AEF53E480D1EC
S11302E020E030E040E85AE37BD120E030E048EC05
S11302F051E41DD081D0DC01CB019093790080932F
S113030078004AE050E063E770E0EFD16DE081E00F
S113031090DF83E790E0AFDF2FEF84E39CE0215090
S113032080409040E1F700C00000B3DFC1CF5058D7
S1130330BB27AA270ED0E0C0D1D030F0D6D020F011
S113034031F49F3F11F41EF4C6C00EF4E095E7FBB0
S1130350BCC0E92FE2D080F3BA17620773078407A1
S1130360950718F071F49EF5FAC00EF4E0950B2E83
S1130370BA2FA02D0B01B90190010C01CA01A001F3
S11303801124FF27591B99F0593F50F4503E68F14E
S11303901A16F040A22F232F342F4427585FF3CF8F
S11303A0469537952795A795F0405395C9F77EF460
S11303B01F16BA0B620B730B840BBAF09150A1F0A9
S11303C0FF0FBB1F661F771F881FC2F70EC0BA0F2F
S11303D0621F731F841F48F4879577956795B795B7
S11303E0F7959E3F08F0B3CF9395880F08F09927AF
S11303F0EE0F97958795089598D088F09F5790F0C1
S1130400B92F9927B751A0F0D1F0660F771F881F35
S1130410991F1AF0BA95C9F712C0B13081F09FD074
S1130420B1E008959CC0672F782F8827B85F39F012
S1130430B93FCCF3869577956795B395D9F73EF494
S113044090958095709561957F4F8F4F9F4F08953C
S1130450E89409C097FB3EF490958095709561955A
S11304607F4F8F4F9F4F9923A9F0F92F96E9BB2710
S11304709395F695879577956795B795F111F8CF8C
S1130480FAF4BB0F11F460FF1BC06F5F7F4F8F4FF7
S11304909F4F16C0882311F096E911C0772321F0ED
S11304A09EE8872F762F05C0662371F096E8862F85
S11304B070E060E02AF09A95660F771F881FDAF7DC
S11304C0880F9695879597F9089597F99F6780E81F
S11304D070E060E008959FEF80EC089500240A9492
S11304E01616170618060906089500240A9412160B
S11304F01306140605060895092E0394000C11F43E
S1130500882352F0BB0F40F4BF2B11F460FF04C0EA
S11305106F5F7F4F8F4F9F4F089557FD9058440F43
S1130520551F59F05F3F71F04795880F97FB991F4E
S113053061F09F3F79F0879508951216130614060B
S1130540551FF2CF4695F1DF08C016161706180698
S1130550991FF1CF86957105610508940895E89473
S1130560BB2766277727CB0197F90895DEDFA8F12B
S11305709E57A8F1985160F039F1983070F5092E22
S11305809927660F771F881F991F0A94D1F71CC0FB
S1130590BB27993F4CF4B111B1E0B62B672F782FEC
S11305A08827985FB1F708C0869577956795B795C2
S11305B008F4B1609395C1F7BB0F30F411F460FFF8
S11305C003C06F5F7F4F8F4F3EF490958095709579
S11305D061957F4F8F4F9F4F08956894C1CFBFCFD0
S11305E00BD08ACF7BDF28F080DF18F0952309F049
S11305F06CCF71CF1124B4CF90DFA0F3959FD1F3CA
S1130600950F50E0551F629FF001729FBB27F00DBC
S1130610B11D639FAA27F00DB11DAA1F649F662711
S1130620B00DA11D661F829F2227B00DA11D621F60
S1130630739FB00DA11D621F839FA00D611D221F1A
S1130640749F3327A00D611D231F849F600D211DFE
S1130650822F762F6A2F11249F5750408AF0E1F0A1
S113066088234AF0EE0FFF1FBB1F661F771F881FEA
S113067091505040A9F79E3F510570F026CF70CF9E
S11306805F3FECF3983EDCF3869577956795B795D5
S1130690F795E7959F5FC1F7FE2B880F911D9695FF
S11306A0879597F90895A1E21A2EAA1BBB1BFD0199
S11306B00DC0AA1FBB1FEE1FFF1FA217B307E4073D
S11306C0F50720F0A21BB30BE40BF50B661F771F95
S11306D0881F991F1A9469F7609570958095909575
S11306E09B01AC01BD01CF0108954532510518F4B9
S11306F0423008F004C0FB011082CB010895BB27EF
S11307004A3031F4992322F4BDE2909581959F4FAC
S113071001C0BB27FB015527AA27880F991FAA1FD1
S1130720A41710F0A41B83955051B9F7A05DAA3308
S113073008F0A95DA193009779F7B111B1931192D3
S1130740CB0100C0DC01FC01672F71917723E1F735
S1130750329704C07C916D9370836291AE17BF078A
S10B0760C8F30895F894FFCFDB
S10F076874656D706572617475723D00FB
S9030000FC
