:100000000C94A7000C94BC000C94BC000C94BC0095
:100010000C94BC000C94BC000C94BC000C94BC0070
:100020000C94BC000C94BC000C94BC000C94BC0060
:100030000C94BC000C94BC000C94BC000C94BC0050
:100040000C94BC000C94BC000C94BC000C94BC0040
:100050000C94BC0000407A10F35A00A0724E1809AC
:100060000010A5D4E80000E87648170000E40B541F
:10007000020000CA9A3B000000E1F50500008096EE
:100080009800000040420F000000A0860100000020
:10009000102700000000E8030000000064000000DA
:1000A00000000A00000000000100000000002C76A3
:1000B000D888DC674F0823DFC1DFAE59E1B1B796BE
:1000C000E5E3E453C63AE651997696E8E6C284261B
:1000D000EB898C9B62ED407C6FFCEFBC9C9F40F2F7
:1000E000BAA56FA5F490055A2AF75C936B6CF96773
:1000F0006DC11BFCE0E40D47FEF520E6B500D0ED38
:10010000902E0300943577050080841E080000209F
:100110004E0A000000C80C333333330F986E12833D
:100120001141EF8D2114893BE65516CFFEE6DB1811
:10013000D1844B381BF77C1D901DA4BBE4242032D6
:1001400084725E228100C9F124ECA1E53D271124CF
:100150001FBECFE5D8E0DEBFCDBF11E0A0E6B0E026
:10016000EEEEF0E502C005900D92A638B107D9F782
:100170000E94F6210C9475280C940000EF92FF92D7
:100180000F931F937B018C0120E030E040E05FE49F
:100190000E946A0488238CF0C801B70120E030E097
:1001A00040E05FE40E9436020E9428059B01AC01FA
:1001B000205030404040504806C0C801B7010E945E
:1001C00028059B01AC01B901CA011F910F91FF9055
:1001D000EF900895A0E0B0E0E0EFF0E00C94E325AC
:1001E000DC012B01FA019C91923008F439C1EB013A
:1001F0008881823008F433C1943069F4843009F086
:100200002FC111969C9111978981981709F428C1E3
:10021000AEE7B0E025C1843009F421C18230A9F4F1
:10022000923009F01DC19A01AD0188E0EA01099000
:10023000AE01E90109929E018150C1F7E201898175
:1002400011969C918923818308C1923009F407C1DA
:1002500012962D903C901397EB018A819B81149606
:10026000AD90BD90CD90DC901797EC80FD800E8115
:100270001F819101281B390BB90137FF04C0662784
:100280007727621B730B603271050CF061C0121688
:1002900013066CF537014801062E04C09694879426
:1002A000779467940A94D2F721E030E040E050E080
:1002B00004C0220F331F441F551F6A95D2F72150E7
:1002C0003040404050402E213F21402351232115F2
:1002D00031054105510521F021E030E040E050E0DA
:1002E00079018A01E628F728082919293CC0232B1F
:1002F000D1F1260E371E35014601062E04C0969414
:100300008794779467940A94D2F721E030E040E034
:1003100050E004C0220F331F441F551F6A95D2F7C7
:1003200021503040404050402A213B214C215D214A
:10033000211531054105510521F021E030E040E073
:1003400050E059016A01A628B728C828D9280BC04F
:10035000821593052CF01C01AA24BB24650103C05F
:10036000EE24FF24870111969C91D20111968C9165
:10037000981709F445C0992339F0A80197012A1963
:100380003B094C095D0906C0A60195012E193F09DC
:10039000400B510B57FD08C0118233822282248307
:1003A0003583468357831DC081E081833382228257
:1003B00088279927DC01821B930BA40BB50B848340
:1003C0009583A683B7830DC0220F331F441F551F8B
:1003D0002483358346835783828193810197938356
:1003E00082832481358146815781DA01C9010197D1
:1003F000A109B1098F5F9F4FAF4FBF4328F30BC0D7
:10040000918333822282EA0CFB1C0C1D1D1DE482A9
:10041000F5820683178383E08083248135814681BA
:10042000578157FF1AC0C901AA2797FDA095BA2F77
:1004300081709070A070B07056954795379527954C
:10044000822B932BA42BB52B84839583A683B78310
:1004500082819381019693838283DF0101C0D2015F
:10046000CD01CDB7DEB7E2E10C94FF25A0E2B0E00C
:10047000ECE3F2E00C94EF2569837A838B839C8311
:100480002D833E834F835887E9E0EE2EF12CEC0E4E
:10049000FD1ECE010196B7010E94A0068E010F5EDF
:1004A0001F4FCE010596B8010E94A0068A8991E0EF
:1004B00089278A8BC701B801AE01475E5F4F0E9452
:1004C000EA000E94CB05A096E6E00C940B26A0E281
:1004D000B0E0EDE6F2E00C94EF2569837A838B833C
:1004E0009C832D833E834F835887F9E0EF2EF12CB8
:1004F000EC0EFD1ECE010196B7010E94A0068E01F2
:100500000F5E1F4FCE010596B8010E94A006C701DD
:10051000B801AE01475E5F4F0E94EA000E94CB0522
:10052000A096E6E00C940B26A0E2B0E0EAE9F2E047
:100530000C94E32569837A838B839C832D833E838C
:100540004F835887CE010196BE01675F7F4F0E949F
:10055000A006CE010596BE016F5E7F4F0E94A006E9
:100560009985923088F089898230C8F0943019F4E6
:10057000823051F404C0843029F4923081F48EE743
:1005800090E0C6C0923049F420E09A858A89981399
:1005900021E02A87CE010996BBC0823049F420E0D1
:1005A0009A858A89981321E02A8BCE014196B0C0A2
:1005B0002D843E844F8458886D887E888F88988CDF
:1005C000EE24FF248701AA24BB24650140E050E00B
:1005D00060E070E0E0E0F0E0C10181709070892B94
:1005E000E9F0E60CF71C081D191D9A01AB012A0D54
:1005F0003B1D4C1D5D1D80E090E0A0E0B0E0E614E6
:10060000F7040805190520F481E090E0A0E0B0E0CF
:10061000BA01A901480F591F6A1F7B1FAA0CBB1CF6
:10062000CC1CDD1C97FE08C081E090E0A0E0B0E0AB
:10063000A82AB92ACA2ADB2A3196E032F10549F004
:10064000660C771C881C991C569447943794279401
:10065000C3CFFA85EA892B893C898B859C85280F35
:10066000391F2E5F3F4F17C0CA0181709070892BD0
:1006700061F016950795F794E79480E090E0A0E08C
:10068000B0E8E82AF92A0A2B1B2B7695679557952F
:1006900047952F5F3F4F77FDE7CF0CC0440F551FA5
:1006A000661F771F17FD4160EE0CFF1C001F111F16
:1006B00021503040403090E0590790E0690790E4C5
:1006C000790760F32B8F3C8FDB01CA018F77907025
:1006D000A070B07080349105A105B10561F447FDAB
:1006E0000AC0E114F1040105110529F0405C5F4FD7
:1006F0006F4F7F4F40781A8EFE1711F081E08A8F7E
:100700004D8F5E8F6F8F78A383E0898FCE014996DE
:100710000E94CB05A096E2E10C94FF25A8E1B0E091
:10072000E4E9F3E00C94EB2569837A838B839C8363
:100730002D833E834F835887B9E0EB2EF12CEC0ECE
:10074000FD1ECE010196B7010E94A0068E010F5E2C
:100750001F4FCE010596B8010E94A00629852230C0
:1007600008F47EC03989323010F4B8017CC08A8523
:100770009A8989278A87243011F0223031F423178F
:1007800009F06EC06EE770E06EC0343039F41D863B
:100790001E861F86188A1C861B8604C0323021F4F0
:1007A00084E08987B7015FC02B853C858B899C8954
:1007B000281B390B3C872B87ED84FE840F85188915
:1007C000AD88BE88CF88D88CEA14FB040C051D05C3
:1007D00040F4EE0CFF1C001F111F215030403C87DD
:1007E0002B8720E030E040E050E080E090E0A0E0A7
:1007F000B0E460E070E0EA14FB040C051D0540F075
:10080000282B392B4A2B5B2BEA18FB080C091D09F6
:10081000B695A79597958795EE0CFF1C001F111FA5
:100820006F5F7F4F6F31710531F7DA01C9018F7743
:100830009070A070B07080349105A105B10561F48D
:1008400027FD0AC0E114F1040105110529F0205C1F
:100850003F4F4F4F5F4F20782D873E874F87588BF4
:10086000BE01675F7F4FCB010E94CB056896EAE02F
:100870000C940726A8E1B0E0E0E4F4E00C94EF2546
:1008800069837A838B839C832D833E834F83588730
:1008900089E0E82EF12CEC0EFD1ECE010196B70189
:1008A0000E94A0068E010F5E1F4FCE010596B80173
:1008B0000E94A0068985823040F08989823028F024
:1008C000C701B8010E94180701C08FEF6896E6E0E3
:1008D0000C940B26A8E1B0E0E0E7F4E00C94EF25DF
:1008E00069837A838B839C832D833E834F835887D0
:1008F00089E0E82EF12CEC0EFD1ECE010196B70129
:100900000E94A0068E010F5E1F4FCE010596B80112
:100910000E94A0068985823040F08989823028F0C3
:10092000C701B8010E94180701C08FEF6896E6E082
:100930000C940B26A8E1B0E0E0EAF4E00C94EF257B
:1009400069837A838B839C832D833E834F8358876F
:1009500089E0E82EF12CEC0EFD1ECE010196B701C8
:100960000E94A0068E010F5E1F4FCE010596B801B2
:100970000E94A0068985823040F08989823028F063
:10098000C701B8010E94180701C081E06896E6E03F
:100990000C940B26A8E0B0E0E0EDF4E00C94EC251C
:1009A0009B01AC0183E08983DA01C9018827B7FD87
:1009B00083959927AA27BB27B82E21153105410514
:1009C000510519F482E089833AC08823A9F02030C8
:1009D00080E0380780E0480780E8580729F460E0A5
:1009E00070E080E09FEC30C0EE24FF248701E21A23
:1009F000F30A040B150B02C079018A018EE1C82E9F
:100A0000D12CDC82CB82ED82FE820F831887C80155
:100A1000B7010E947C0501971816190684F4082E68
:100A200004C0EE0CFF1C001F111F0A94D2F7ED82C8
:100A3000FE820F831887C81AD90ADC82CB82BA8259
:100A4000CE0101960E94CB052896E9E00C94082679
:100A5000ACE0B0E0EEE2F5E00C94F32569837A8334
:100A60008B839C83CE010196BE016B5F7F4F0E94FA
:100A7000A0068D81823061F1823050F1843021F402
:100A80008E81882351F12EC02F81388537FD20C0FB
:100A90006E812F3131051CF06623F9F023C08EE101
:100AA00090E0821B930B29853A854B855C8504C0B9
:100AB00056954795379527958A95D2F76623B1F0D5
:100AC00050954095309521953F4F4F4F5F4F0EC049
:100AD00020E030E040E050E009C02FEF3FEF4FEF63
:100AE0005FE704C020E030E040E050E8B901CA010F
:100AF0002C96E2E00C940F26EF92FF920F931F9337
:100B00007B018C0180E0E81680E0F80681E00807B0
:100B100080E0180788F48FEFE816F104010511054D
:100B200031F028F088E090E0A0E0B0E017C080E06D
:100B300090E0A0E0B0E012C080E0E81680E0F806A7
:100B400080E0080781E0180728F088E190E0A0E045
:100B5000B0E004C080E190E0A0E0B0E020E230E04E
:100B600040E050E0281B390B4A0B5B0B04C0169584
:100B70000795F794E7948A95D2F7F701EA57FF4F64
:100B80008081281B310941095109C9011F910F9129
:100B9000FF90EF900895DF92EF92FF920F931F93D3
:100BA000FC01E480F58006811781D180808182304C
:100BB00048F480E090E0A0E1B0E0E82AF92A0A2BAE
:100BC0001B2BA5C0843009F49FC0823021F4EE2491
:100BD000FF24870105C0E114F1040105110519F492
:100BE000E0E0F0E096C0628173819FEF62387907A0
:100BF0000CF05BC022E83FEF261B370B2A31310592
:100C00002CF020E030E040E050E02AC0B801A7011D
:100C1000022E04C076956795579547950A94D2F7AA
:100C200081E090E0A0E0B0E004C0880F991FAA1F07
:100C3000BB1F2A95D2F70197A109B1098E219F21E7
:100C4000A023B1230097A105B10521F081E090E038
:100C5000A0E0B0E09A01AB01282B392B4A2B5B2B8B
:100C6000DA01C9018F779070A070B070803491055F
:100C7000A105B10539F427FF09C0205C3F4F4F4F54
:100C80005F4F04C0215C3F4F4F4F5F4FE0E0F0E00B
:100C90002030A0E03A07A0E04A07A0E45A0710F08D
:100CA000E1E0F0E079018A0127C06038710564F560
:100CB000FB01E158FF4FD801C7018F779070A070FA
:100CC000B07080349105A105B10539F4E7FE0DC07F
:100CD00080E490E0A0E0B0E004C08FE390E0A0E00A
:100CE000B0E0E80EF91E0A1F1B1F17FF05C016957E
:100CF0000795F794E794319687E016950795F79452
:100D0000E7948A95D1F705C0EE24FF248701EFEF21
:100D1000F0E06E2F679566276795902F9F77D794A1
:100D2000DD24D7948E2F8695492F462B582F5D2989
:100D3000B701CA011F910F91FF90EF90DF900895C6
:100D4000FC01DB01408151812281622F6F7770E0CD
:100D5000221F2227221F9381892F880F822B282F61
:100D600030E0991F9927991F11969C93119721158F
:100D70003105A9F5411551056105710511F482E0B0
:100D800037C082E89FEF13969C938E9312979A0137
:100D9000AB0167E0220F331F441F551F6A95D1F73F
:100DA00083E08C930DC0220F331F441F551F1296F2
:100DB0008D919C911397019713969C938E93129704
:100DC000203080E0380780E0480780E4580758F377
:100DD00014962D933D934D935C93179708952F3F51
:100DE000310579F4411551056105710519F484E067
:100DF0008C93089564FF03C081E08C9312C01C9211
:100E000010C02F57304013963C932E93129783E0D7
:100E10008C9387E0440F551F661F771F8A95D1F783
:100E2000706414964D935D936D937C93179708951A
:100E30001F93DC01FB019C91923008F447C0808134
:100E4000823008F443C0943051F411961C918430E0
:100E500099F58181682F70E0611B71093FC0843072
:100E600021F0923031F48230B9F18181882389F107
:100E70002DC011961C9111978230F1F081811817C5
:100E8000D9F412962D913C91139782819381821708
:100E9000930794F028173907BCF014968D919D9113
:100EA0000D90BC91A02D2481358146815781281752
:100EB00039074A075B0718F4112341F00AC082176B
:100EC0009307A407B50740F4112319F061E070E01F
:100ED00005C06FEF7FEF02C060E070E0CB011F91B3
:100EE0000895DF93CF930F92CDB7DEB7A7E3B0E0BD
:100EF000E7E3F0E080818F608C93E8E3F0E08081AD
:100F0000E8E3F0E08FEF80830F90CF91DF910895B9
:100F10000F931F93DF93CF93CDB7DEB7C25ED04060
:100F20000FB6F894DEBF0FBECDBFE8E3F0E08EEF62
:100F30008083E6E3F0E08081882F90E080719070FC
:100F4000009709F0C5C0FE01E352FF4F80E090E03A
:100F5000A0E0B0E480839183A283B3838E01075223
:100F60001F4FFE01E352FF4F6081718182819381A7
:100F700020E030E04AEF54E40E949402DC01CB010F
:100F8000F80180839183A283B383FE01E752FF4F70
:100F9000608171818281938120E030E040E85FE3ED
:100FA0000E949A04882344F4FE01E952FF4F81E035
:100FB00090E09183808364C0FE01E752FF4F60811F
:100FC00071818281938120E03FEF4FE757E40E94D7
:100FD0003A0418160CF043C0FE01E352FF4F608143
:100FE00071818281938120E030E040E251E40E94EF
:100FF0009402DC01CB018E0109521F4FBC01CD01CF
:101000000E94BE00DC01CB01F801918380831FC0E8
:10101000FE01EB52FF4F88EC90E091838083FE014C
:10102000EB52FF4F808191810197F1F7FE01EB5266
:10103000FF4F91838083DE01A952BF4FFE01E95229
:10104000FF4F80819181019711969C938E93FE01B1
:10105000E952FF4F808191810097D1F628C08E011F
:1010600009521F4FFE01E752FF4F6081718182815B
:1010700093810E94BE00DC01CB01F8019183808343
:10108000DE01AD52BF4FFE01E952FF4F80819181D9
:1010900011969C938E93FE01ED52FF4F80819181BA
:1010A0000197F1F7FE01ED52FF4F91838083E6E354
:1010B000F0E08081882F90E0807190700097B9F304
:1010C000FE01EF51FF4F81E090E09183808364C285
:1010D000E6E3F0E08081882F90E0807290700097C6
:1010E00009F0C5C0FE01E153FF4F80E090E0A0E0B1
:1010F000B0E480839183A283B3838E0105531F4F95
:10110000FE01E153FF4F608171818281938120E074
:1011100030E04AEF54E40E949402DC01CB01F80174
:1011200080839183A283B383FE01E553FF4F6081E7
:1011300071818281938120E030E040E85FE30E948A
:101140009A04882344F4FE01E753FF4F81E090E0C6
:101150009183808364C0FE01E553FF4F60817181FC
:101160008281938120E03FEF4FE757E40E943A04E9
:1011700018160CF043C0FE01E153FF4F60817181EE
:101180008281938120E030E040E251E40E949402A9
:10119000DC01CB018E0107531F4FBC01CD010E9422
:1011A000BE00DC01CB01F801918380831FC0FE01EA
:1011B000E953FF4F88EC90E091838083FE01E9536F
:1011C000FF4F808191810197F1F7FE01E953FF4FB5
:1011D00091838083DE01A753BF4FFE01E753FF4F8A
:1011E00080819181019711969C938E93FE01E75324
:1011F000FF4F808191810097D1F628C08E0107535F
:101200001F4FFE01E553FF4F608171818281938101
:101210000E94BE00DC01CB01F80191838083DE01D6
:10122000AB53BF4FFE01E753FF4F80819181119671
:101230009C938E93FE01EB53FF4F80819181019728
:10124000F1F7FE01EB53FF4F91838083E6E3F0E07B
:101250008081882F90E0807290700097B9F3FE0132
:10126000EF51FF4F82E090E09183808395C1E6E3E8
:10127000F0E08081882F90E080749070009709F0F2
:10128000C5C0FE01EF53FF4F80E090E0A0E0B0E466
:1012900080839183A283B3838E0103541F4FFE0189
:1012A000EF53FF4F608171818281938120E030E0B4
:1012B0004AEF54E40E949402DC01CB01F8018083E0
:1012C0009183A283B383FE01E354FF4F6081718158
:1012D0008281938120E030E040E85FE30E949A043D
:1012E000882344F4FE01E554FF4F81E090E09183B0
:1012F000808364C0FE01E354FF4F6081718182816D
:10130000938120E03FEF4FE757E40E943A0418161C
:101310000CF043C0FE01EF53FF4F60817181828169
:10132000938120E030E040E251E40E949402DC012D
:10133000CB018E0105541F4FBC01CD010E94BE00A0
:10134000DC01CB01F801918380831FC0FE01E754CB
:10135000FF4F88EC90E091838083FE01E754FF4FBC
:10136000808191810197F1F7FE01E754FF4F91834E
:101370008083DE01A554BF4FFE01E554FF4F8081FD
:101380009181019711969C938E93FE01E554FF4F36
:10139000808191810097D1F628C08E0105541F4F9E
:1013A000FE01E354FF4F60817181828193810E942D
:1013B000BE00DC01CB01F80191838083DE01A954DA
:1013C000BF4FFE01E554FF4F8081918111969C93A0
:1013D0008E93FE01E954FF4F808191810197F1F7CF
:1013E000FE01E954FF4F91838083E6E3F0E08081C2
:1013F000882F90E0807490700097B9F3FE01EF5150
:10140000FF4F83E090E091838083C6C0E6E3F0E085
:10141000808188230CF4C0C0FE01ED54FF4F80E0B2
:1014200090E0A0E0B0E480839183A283B3838E0137
:1014300001551F4FFE01ED54FF4F60817181828184
:10144000938120E030E04AEF54E40E949402DC01F2
:10145000CB01F80180839183A283B383FE01E15520
:10146000FF4F608171818281938120E030E040E80C
:101470005FE30E949A04882344F4FE01E355FF4F82
:1014800081E090E09183808364C0FE01E155FF4FCD
:10149000608171818281938120E03FEF4FE757E4C3
:1014A0000E943A0418160CF043C0FE01ED54FF4FA1
:1014B000608171818281938120E030E040E251E4DB
:1014C0000E949402DC01CB018E0103551F4FBC0129
:1014D000CD010E94BE00DC01CB01F8019183808325
:1014E0001FC0FE01E555FF4F88EC90E0918380839B
:1014F000FE01E555FF4F808191810197F1F7FE01D3
:10150000E555FF4F91838083DE01A355BF4FFE0158
:10151000E355FF4F80819181019711969C938E93A3
:10152000FE01E355FF4F808191810097D1F628C0DD
:101530008E0103551F4FFE01E155FF4F6081718100
:10154000828193810E94BE00DC01CB01F80191836E
:101550008083DE01A755BF4FFE01E355FF4F808119
:10156000918111969C938E93FE01E755FF4F8081E8
:1015700091810197F1F7FE01E755FF4F9183808339
:10158000E6E3F0E080818823DCF7FE01EF51FF4FB6
:1015900084E090E091838083E8E3F0E08DEF808346
:1015A000E6E3F0E08081882F90E0807190700097F2
:1015B00009F0C5C0FE01EB55FF4F80E090E0A0E0D0
:1015C000B0E480839183A283B3838E010F551F4FB4
:1015D000FE01EB55FF4F608171818281938120E094
:1015E00030E04AEF54E40E949402DC01CB01F801A0
:1015F00080839183A283B383FE01EF55FF4F608107
:1016000071818281938120E030E040E85FE30E94B5
:101610009A04882344F4FE01E156FF4F81E090E0F4
:101620009183808364C0FE01EF55FF4F608171811B
:101630008281938120E03FEF4FE757E40E943A0414
:1016400018160CF043C0FE01EB55FF4F608171810D
:101650008281938120E030E040E251E40E949402D4
:10166000DC01CB018E0101561F4FBC01CD010E9450
:10167000BE00DC01CB01F801918380831FC0FE0115
:10168000E356FF4F88EC90E091838083FE01E356A0
:10169000FF4F808191810197F1F7FE01E356FF4FE3
:1016A00091838083DE01A156BF4FFE01E156FF4FBB
:1016B00080819181019711969C938E93FE01E15652
:1016C000FF4F808191810097D1F628C08E0101568D
:1016D0001F4FFE01EF55FF4F608171818281938121
:1016E0000E94BE00DC01CB01F80191838083DE0102
:1016F000A556BF4FFE01E156FF4F808191811196A3
:101700009C938E93FE01E556FF4F80819181019756
:10171000F1F7FE01E556FF4F91838083E6E3F0E0A9
:101720008081882F90E0807190700097B9F3FE015E
:10173000EF51FF4F85E090E09183808364C2E6E340
:10174000F0E08081882F90E080729070009709F01F
:10175000C5C0FE01E956FF4F80E090E0A0E0B0E494
:1017600080839183A283B3838E010D561F4FFE01A8
:10177000E956FF4F608171818281938120E030E0E2
:101780004AEF54E40E949402DC01CB01F80180830B
:101790009183A283B383FE01ED56FF4F6081718177
:1017A0008281938120E030E040E85FE30E949A0468
:1017B000882344F4FE01EF56FF4F81E090E09183CF
:1017C000808364C0FE01ED56FF4F6081718182818C
:1017D000938120E03FEF4FE757E40E943A04181648
:1017E0000CF043C0FE01E956FF4F60817181828198
:1017F000938120E030E040E251E40E949402DC0159
:10180000CB018E010F561F4FBC01CD010E94BE00BF
:10181000DC01CB01F801918380831FC0FE01E157F9
:10182000FF4F88EC90E091838083FE01E157FF4FEA
:10183000808191810197F1F7FE01E157FF4F91837C
:101840008083DE01AF56BF4FFE01EF56FF4F808110
:101850009181019711969C938E93FE01EF56FF4F55
:10186000808191810097D1F628C08E010F561F4FBD
:10187000FE01ED56FF4F60817181828193810E944C
:10188000BE00DC01CB01F80191838083DE01A35708
:10189000BF4FFE01EF56FF4F8081918111969C93BF
:1018A0008E93FE01E357FF4F808191810197F1F7FD
:1018B000FE01E357FF4F91838083E6E3F0E08081F0
:1018C000882F90E0807290700097B9F3FE01EF517D
:1018D000FF4F86E090E09183808395C1E6E3F0E0DE
:1018E0008081882F90E080749070009709F0C5C0C7
:1018F000FE01E757FF4F80E090E0A0E0B0E4808376
:101900009183A283B3838E010B571F4FFE01E757CC
:10191000FF4F608171818281938120E030E04AEF46
:1019200054E40E949402DC01CB01F801808391838E
:10193000A283B383FE01EB57FF4F608171818281E7
:10194000938120E030E040E85FE30E949A0488231E
:1019500044F4FE01ED57FF4F81E090E091838083D6
:1019600064C0FE01EB57FF4F6081718182819381DA
:1019700020E03FEF4FE757E40E943A0418160CF0BE
:1019800043C0FE01E757FF4F6081718182819381DF
:1019900020E030E040E251E40E949402DC01CB01FF
:1019A0008E010D571F4FBC01CD010E94BE00DC010E
:1019B000CB01F801918380831FC0FE01EF57FF4FD9
:1019C00088EC90E091838083FE01EF57FF4F808188
:1019D00091810197F1F7FE01EF57FF4F91838083CB
:1019E000DE01AD57BF4FFE01ED57FF4F8081918162
:1019F000019711969C938E93FE01ED57FF4F8081C6
:101A000091810097D1F628C08E010D571F4FFE011E
:101A1000EB57FF4F60817181828193810E94BE00EC
:101A2000DC01CB01F80191838083DE01A158BF4F17
:101A3000FE01ED57FF4F8081918111969C938E930B
:101A4000FE01E158FF4F808191810197F1F7FE017E
:101A5000E158FF4F91838083E6E3F0E08081882F97
:101A600090E0807490700097B9F3FE01EF51FF4F42
:101A700087E090E091838083C6C0E6E3F0E0808158
:101A800088230CF4C0C0FE01E558FF4F80E090E0D1
:101A9000A0E0B0E480839183A283B3838E010958D0
:101AA0001F4FFE01E558FF4F608171818281938154
:101AB00020E030E04AEF54E40E949402DC01CB01C4
:101AC000F80180839183A283B383FE01E958FF4F1D
:101AD000608171818281938120E030E040E85FE3A2
:101AE0000E949A04882344F4FE01EB58FF4F81E0E2
:101AF00090E09183808364C0FE01E958FF4F6081CC
:101B000071818281938120E03FEF4FE757E40E948B
:101B10003A0418160CF043C0FE01E558FF4F6081EF
:101B200071818281938120E030E040E251E40E94A3
:101B30009402DC01CB018E010B581F4FBC01CD017B
:101B40000E94BE00DC01CB01F801918380831FC09D
:101B5000FE01ED58FF4F88EC90E091838083FE01F9
:101B6000ED58FF4F808191810197F1F7FE01ED580B
:101B7000FF4F91838083DE01AB58BF4FFE01EB58CE
:101B8000FF4F80819181019711969C938E93FE0166
:101B9000EB58FF4F808191810097D1F628C08E01CC
:101BA0000B581F4FFE01E958FF4F60817181828100
:101BB00093810E94BE00DC01CB01F80191838083F8
:101BC000DE01AF58BF4FFE01EB58FF4F808191817E
:101BD00011969C938E93FE01EF58FF4F8081918167
:101BE0000197F1F7FE01EF58FF4F91838083E6E301
:101BF000F0E080818823DCF7FE01EF51FF4F88E0A1
:101C000090E091838083E8E3F0E08BEF8083E6E36C
:101C1000F0E08081882F90E080719070009709F04B
:101C2000C5C0FE01E359FF4F80E090E0A0E0B0E4C2
:101C300080839183A283B3838E0107591F4FFE01D6
:101C4000E359FF4F608171818281938120E030E010
:101C50004AEF54E40E949402DC01CB01F801808336
:101C60009183A283B383FE01E759FF4F60817181A5
:101C70008281938120E030E040E85FE30E949A0493
:101C8000882344F4FE01E959FF4F81E090E09183FD
:101C9000808364C0FE01E759FF4F608171818281BA
:101CA000938120E03FEF4FE757E40E943A04181673
:101CB0000CF043C0FE01E359FF4F608171818281C6
:101CC000938120E030E040E251E40E949402DC0184
:101CD000CB018E0109591F4FBC01CD010E94BE00EE
:101CE000DC01CB01F801918380831FC0FE01EB5919
:101CF000FF4F88EC90E091838083FE01EB59FF4F0A
:101D0000808191810197F1F7FE01EB59FF4F91839B
:101D10008083DE01A959BF4FFE01E959FF4F808141
:101D20009181019711969C938E93FE01E959FF4F83
:101D3000808191810097D1F628C08E0109591F4FEB
:101D4000FE01E759FF4F60817181828193810E947A
:101D5000BE00DC01CB01F80191838083DE01AD5927
:101D6000BF4FFE01E959FF4F8081918111969C93ED
:101D70008E93FE01ED59FF4F808191810197F1F71C
:101D8000FE01ED59FF4F91838083E6E3F0E080810F
:101D9000882F90E0807190700097B9F3FE01EF51A9
:101DA000FF4F89E090E09183808335C2E6E3F0E065
:101DB0008081882F90E080729070009709F0C5C0F4
:101DC000FE01E15AFF4F80E090E0A0E0B0E48083A4
:101DD0009183A283B3838E01055A1F4FFE01E15AFE
:101DE000FF4F608171818281938120E030E04AEF72
:101DF00054E40E949402DC01CB01F80180839183BA
:101E0000A283B383FE01E55AFF4F60817181828115
:101E1000938120E030E040E85FE30E949A04882349
:101E200044F4FE01E75AFF4F81E090E09183808304
:101E300064C0FE01E55AFF4F608171818281938108
:101E400020E03FEF4FE757E40E943A0418160CF0E9
:101E500043C0FE01E15AFF4F60817181828193810D
:101E600020E030E040E251E40E949402DC01CB012A
:101E70008E01075A1F4FBC01CD010E94BE00DC013C
:101E8000CB01F801918380831FC0FE01E95AFF4F07
:101E900088EC90E091838083FE01E95AFF4F8081B6
:101EA00091810197F1F7FE01E95AFF4F91838083F9
:101EB000DE01A75ABF4FFE01E75AFF4F8081918193
:101EC000019711969C938E93FE01E75AFF4F8081F4
:101ED00091810097D1F628C08E01075A1F4FFE014D
:101EE000E55AFF4F60817181828193810E94BE001B
:101EF000DC01CB01F80191838083DE01AB5ABF4F37
:101F0000FE01E75AFF4F8081918111969C938E9339
:101F1000FE01EB5AFF4F808191810197F1F7FE019D
:101F2000EB5AFF4F91838083E6E3F0E08081882FB6
:101F300090E0807290700097B9F3FE01EF51FF4F6F
:101F40008AE090E09183808366C1E6E3F0E08081DF
:101F5000882F90E080749070009709F0C5C0FE0152
:101F6000EF5AFF4F80E090E0A0E0B0E480839183DF
:101F7000A283B3838E01035B1F4FFE01EF5AFF4F15
:101F8000608171818281938120E030E04AEF54E4E6
:101F90000E949402DC01CB01F80180839183A2832B
:101FA000B383FE01E35BFF4F608171818281938186
:101FB00020E030E040E85FE30E949A04882344F484
:101FC000FE01E55BFF4F81E090E09183808364C078
:101FD000FE01E35BFF4F608171818281938120E08C
:101FE0003FEF4FE757E40E943A0418160CF043C045
:101FF000FE01EF5AFF4F608171818281938120E061
:1020000030E040E251E40E949402DC01CB018E01F9
:10201000055B1F4FBC01CD010E94BE00DC01CB015E
:10202000F801918380831FC0FE01E75BFF4F88ECBE
:1020300090E091838083FE01E75BFF4F8081918177
:102040000197F1F7FE01E75BFF4F91838083DE018B
:10205000A55BBF4FFE01E55BFF4F8081918101973A
:1020600011969C938E93FE01E55BFF4F80819181D9
:102070000097D1F628C08E01055B1F4FFE01E35B80
:10208000FF4F60817181828193810E94BE00DC01DB
:10209000CB01F80191838083DE01A95BBF4FFE0174
:1020A000E55BFF4F8081918111969C938E93FE0199
:1020B000E95BFF4F808191810197F1F7FE01E95BB8
:1020C000FF4F91838083E6E3F0E08081882F90E0EA
:1020D000807490700097B9F3FE01EF51FF4F8BE0D1
:1020E00090E09183808397C0E6E3F0E080818823CD
:1020F0000CF491C0FE01ED5BFF4F80E090E0A0E0AA
:10210000B0E480839183A283B3838E01015C1F4F6F
:10211000FE01ED5BFF4F608171818281938120E040
:1021200030E04AEF54E40E949402DC01CB01F80154
:1021300080839183A283B383FE01FF9660817181C6
:102140008281938120E030E040E85FE30E949A04BE
:1021500088232CF481E090E09EAF8DAF46C0FE0155
:10216000FF96608171818281938120E03FEF4FE78C
:1021700057E40E943A04181664F5FE01ED5BFF4F28
:10218000608171818281938120E030E040E251E4FE
:102190000E949402DC01CB01BC01CD010E94BE0073
:1021A000DC01CB019EAF8DAF0FC088EC90E09CAFFF
:1021B0008BAF8BAD9CAD0197F1F79CAF8BAF8DAD25
:1021C0009EAD01979EAF8DAF8DAD9EAD009769F727
:1021D00016C0FE01FF9660817181828193810E9409
:1021E000BE00DC01CB019EAF8DAF8DAD9EAD9AAF31
:1021F00089AF89AD9AAD0197F1F79AAF89AFE6E360
:10220000F0E080818823DCF7FE01EF51FF4F8CE086
:1022100090E091838083E8E3F0E087EF8083E6E35A
:10222000F0E08081882F90E080719070009709F035
:1022300083C080E090E0A0E0B0E48DAB9EABAFAB9C
:10224000B8AF6DA97EA98FA998AD20E030E04AEF24
:1022500054E40E949402DC01CB0189AB9AABABAB96
:10226000BCAB69A97AA98BA99CA920E030E040E821
:102270005FE30E949A0488232CF481E090E098ABFD
:102280008FA73FC069A97AA98BA99CA920E03FEF3D
:102290004FE757E40E943A0418164CF56DA97EA941
:1022A0008FA998AD20E030E040E251E40E94940212
:1022B000DC01CB01BC01CD010E94BE00DC01CB01E1
:1022C00098AB8FA70FC088EC90E09EA78DA78DA537
:1022D0009EA50197F1F79EA78DA78FA598A90197B5
:1022E00098AB8FA78FA598A9009769F714C069A923
:1022F0007AA98BA99CA90E94BE00DC01CB0198ABF6
:102300008FA78FA598A99CA78BA78BA59CA50197A4
:10231000F1F79CA78BA7E6E3F0E08081882F90E09F
:10232000807190700097B9F3FE01EF51FF4F8DE07F
:1023300090E0918380839EC1E6E3F0E08081882F66
:1023400090E080729070009709F083C080E090E088
:10235000A0E0B0E48FA398A7A9A7BAA76FA178A51A
:1023600089A59AA520E030E04AEF54E40E94940247
:10237000DC01CB018BA39CA3ADA3BEA36BA17CA16D
:102380008DA19EA120E030E040E85FE30E949A0426
:1023900088232CF481E090E09AA389A33FC06BA12D
:1023A0007CA18DA19EA120E03FEF4FE757E40E9462
:1023B0003A0418164CF56FA178A589A59AA520E0D6
:1023C00030E040E251E40E949402DC01CB01BC0108
:1023D000CD010E94BE00DC01CB019AA389A30FC0EE
:1023E00088EC90E098A38F8F8F8D98A10197F1F7DB
:1023F00098A38F8F89A19AA101979AA389A389A1F4
:102400009AA1009769F714C06BA17CA18DA19EA130
:102410000E94BE00DC01CB019AA389A389A19AA1E5
:102420009E8F8D8F8D8D9E8D0197F1F79E8F8D8F55
:10243000E6E3F0E08081882F90E080729070009752
:10244000B9F3FE01EF51FF4F8EE090E0918380835E
:1024500011C1E6E3F0E08081882F90E080749070F5
:10246000009709F083C080E090E0A0E0B0E4898F9D
:102470009A8FAB8FBC8F698D7A8D8B8D9C8D20E070
:1024800030E04AEF54E40E949402DC01CB018D8BD2
:102490009E8BAF8BB88F6D897E898F89988D20E058
:1024A00030E040E85FE30E949A0488232CF481E046
:1024B00090E09C8B8B8B3FC06D897E898F89988D36
:1024C00020E03FEF4FE757E40E943A0418164CF51E
:1024D000698D7A8D8B8D9C8D20E030E040E251E457
:1024E0000E949402DC01CB01BC01CD010E94BE0020
:1024F000DC01CB019C8B8B8B0FC088EC90E09A8B1E
:10250000898B89899A890197F1F79A8B898B8B89B5
:102510009C8901979C8B8B8B8B899C89009769F791
:1025200014C06D897E898F89988D0E94BE00DC0160
:10253000CB019C8B8B8B8B899C89988B8F878F850C
:1025400098890197F1F7988B8F87E6E3F0E0808117
:10255000882F90E0807490700097B9F3FE01EF51DE
:10256000FF4F8FE090E09183808384C0E6E3F0E04A
:10257000808188230CF47EC080E090E0A0E0B0E48D
:102580008B879C87AD87BE876B857C858D859E8577
:1025900020E030E04AEF54E40E949402DC01CB01D9
:1025A0008F839887A987BA876F81788589859A856F
:1025B00020E030E040E85FE30E949A0488232CF496
:1025C00081E090E09E838D833FC06F81788589850F
:1025D0009A8520E03FEF4FE757E40E943A0418162F
:1025E0004CF56B857C858D859E8520E030E040E252
:1025F00051E40E949402DC01CB01BC01CD010E9498
:10260000BE00DC01CB019E838D830FC088EC90E07F
:102610009C838B838B819C810197F1F79C838B83B7
:102620008D819E8101979E838D838D819E810097F0
:1026300069F714C06F81788589859A850E94BE00EC
:10264000DC01CB019E838D838D819E819A8389835A
:1026500089819A810197F1F79A838983E6E3F0E013
:1026600080818823DCF7FE01EF51FF4F80E190E08D
:1026700091838083FE01EF51FF4F80819181CE5184
:10268000DF4F0FB6F894DEBF0FBECDBFCF91DF9105
:102690001F910F9108950F931F93DF93CF93CDB7A1
:1026A000DEB7C954D0400FB6F894DEBF0FBECDBF21
:1026B000FE01E75BFF4F8083A5E3B0E0E5E3F0E0D8
:1026C0008081982F9F70FE01E75BFF4F8081807FA4
:1026D000892B8C93A5E3B0E0E5E3F0E080818E7F69
:1026E0008C93A5E3B0E0E5E3F0E080818D7F8C93EF
:1026F000A5E3B0E0E5E3F0E0808184608C93FE0127
:10270000EB5BFF4F80E090E0A8E4B2E4808391832C
:10271000A283B3838E010F5B1F4FFE01EB5BFF4F64
:1027200060817181828193812BEA3AEA4AE250E426
:102730000E949402DC01CB01F80180839183A28383
:10274000B383FE01EF5BFF4F6081718182819381D2
:1027500020E030E040E85FE30E949A04882334F4EC
:1027600081E0FE01E05CFF4F80839DC0FE01EF5BD6
:10277000FF4F608171818281938120E030E04FE7DB
:1027800053E40E943A0418160CF07EC0FE01EB5B85
:10279000FF4F608171818281938120E030E04AE7C0
:1027A00054E40E948E03DC01CB018CAF9DAFAEAF31
:1027B000BFAF6CAD7DAD8EAD9FAD20E030E04AEF98
:1027C00054E40E949402DC01CB0188AF99AFAAAF18
:1027D000BBAF68AD79AD8AAD9BAD20E030E040E89D
:1027E0005FE30E949A0488232CF481E090E09FAB81
:1027F0008EAB3FC068AD79AD8AAD9BAD20E03FEFB9
:102800004FE757E40E943A0418164CF56CAD7DADC5
:102810008EAD9FAD20E030E040E251E40E94940292
:10282000DC01CB01BC01CD010E94BE00DC01CB016B
:102830009FAB8EAB0FC088EC90E09DAB8CAB8CA9AE
:102840009DA90197F1F79DAB8CAB8EA99FA901972C
:102850009FAB8EAB8EA99FA9009769F72DC068AD7D
:1028600079AD8AAD9BAD0E94BE00DC01CB019FAB70
:102870008EAB8EA99FA99BAB8AAB8AA99BA9019716
:10288000F1F79BAB8AAB18C0FE01EF5BFF4F608195
:102890007181828193810E94BE00DC01CB01FE0127
:1028A000E05CFF4F8083FE01E05CFF4F808189ABDD
:1028B00089A98A95F1F789ABA5E3B0E0E5E3F0E0FB
:1028C00080818B7F8C9380E090E0A8E4B2E48DA7B8
:1028D0009EA7AFA7B8AB6DA57EA58FA598A92BEA3B
:1028E0003AEA4AE250E40E949402DC01CB0189A753
:1028F0009AA7ABA7BCA769A57AA58BA59CA520E044
:1029000030E040E85FE30E949A0488231CF481E0F1
:1029100088A791C069A57AA58BA59CA520E030E089
:102920004FE753E40E943A0418160CF07BC06DA5E3
:102930007EA58FA598A920E030E04AE754E40E94E4
:102940008E03DC01CB018CA39DA3AEA3BFA36CA11E
:102950007DA18EA19FA120E030E04AEF54E40E94C7
:102960009402DC01CB0188A399A3AAA3BBA368A10D
:1029700079A18AA19BA120E030E040E85FE30E94BA
:102980009A0488232CF481E090E09F8F8E8F3FC0C3
:1029900068A179A18AA19BA120E03FEF4FE757E40E
:1029A0000E943A0418164CF56CA17DA18EA19FA13E
:1029B00020E030E040E251E40E949402DC01CB01CF
:1029C000BC01CD010E94BE00DC01CB019F8F8E8F28
:1029D0000FC088EC90E09D8F8C8F8C8D9D8D019722
:1029E000F1F79D8F8C8F8E8D9F8D01979F8F8E8F8E
:1029F0008E8D9F8D009769F724C068A179A18AA167
:102A00009BA10E94BE00DC01CB019F8F8E8F8E8D1B
:102A10009F8D9B8F8A8F8A8D9B8D0197F1F79B8F5E
:102A20008A8F0FC069A57AA58BA59CA50E94BE00C0
:102A3000DC01CB0188A788A5898F898D8A95F1F75C
:102A4000898FA5E3B0E0E5E3F0E08081282F2F70C7
:102A5000FE01E75BFF4F8081882F90E08295929581
:102A6000907F9827807F9827822B8C93A5E3B0E0F6
:102A7000E5E3F0E0808184608C9380E090E0A8E45E
:102A8000B2E48D8B9E8BAF8BB88F6D897E898F89D9
:102A9000988D2BEA3AEA4AE250E40E949402DC0163
:102AA000CB01898B9A8BAB8BBC8B69897A898B899B
:102AB0009C8920E030E040E85FE30E949A0488238C
:102AC0001CF481E0888B91C069897A898B899C8903
:102AD00020E030E04FE753E40E943A0418160CF06F
:102AE0007BC06D897E898F89988D20E030E04AE730
:102AF00054E40E948E03DC01CB018C879D87AE8756
:102B0000BF876C857D858E859F8520E030E04AEF0C
:102B100054E40E949402DC01CB0188879987AA873C
:102B2000BB87688579858A859B8520E030E040E811
:102B30005FE30E949A0488232CF481E090E09F8355
:102B40008E833FC0688579858A859B8520E03FEF2D
:102B50004FE757E40E943A0418164CF56C857D85C2
:102B60008E859F8520E030E040E251E40E9494028F
:102B7000DC01CB01BC01CD010E94BE00DC01CB0118
:102B80009F838E830FC088EC90E09D838C838C8123
:102B90009D810197F1F79D838C838E819F810197A1
:102BA0009F838E838E819F81009769F724C06885FB
:102BB00079858A859B850E94BE00DC01CB019F83BD
:102BC0008E838E819F819B838A838A819B810197DB
:102BD000F1F79B838A830FC069897A898B899C89E5
:102BE0000E94BE00DC01CB01888B888989838981A2
:102BF0008A95F1F78983A5E3B0E0E5E3F0E0808111
:102C00008B7F8C93C75BDF4F0FB6F894DEBF0FBE90
:102C1000CDBFCF91DF911F910F9108950F931F9317
:102C2000DF93CF93CDB7DEB7C954D0400FB6F89439
:102C3000DEBF0FBECDBFFE01E75BFF4F8083A5E384
:102C4000B0E0E5E3F0E08081982F9F70FE01E75B44
:102C5000FF4F8081807F892B8C93A5E3B0E0E5E373
:102C6000F0E0808181608C93A5E3B0E0E5E3F0E0E3
:102C700080818D7F8C93A5E3B0E0E5E3F0E0808177
:102C800084608C93FE01EB5BFF4F80E090E0A8E452
:102C9000B2E480839183A283B3838E010F5B1F4FC5
:102CA000FE01EB5BFF4F60817181828193812BEA92
:102CB0003AEA4AE250E40E949402DC01CB01F801B6
:102CC00080839183A283B383FE01EF5BFF4F60811A
:102CD00071818281938120E030E040E85FE30E94CF
:102CE0009A04882334F481E0FE01E05CFF4F808386
:102CF0009DC0FE01EF5BFF4F6081718182819381F6
:102D000020E030E04FE753E40E943A0418160CF03C
:102D10007EC0FE01EB5BFF4F6081718182819381F8
:102D200020E030E04AE754E40E948E03DC01CB014E
:102D30008CAF9DAFAEAFBFAF6CAD7DAD8EAD9FAD77
:102D400020E030E04AEF54E40E949402DC01CB0121
:102D500088AF99AFAAAFBBAF68AD79AD8AAD9BAD77
:102D600020E030E040E85FE30E949A0488232CF4DE
:102D700081E090E09FAB8EAB3FC068AD79AD8AAD8E
:102D80009BAD20E03FEF4FE757E40E943A0418164E
:102D90004CF56CAD7DAD8EAD9FAD20E030E040E2F6
:102DA00051E40E949402DC01CB01BC01CD010E94E0
:102DB000BE00DC01CB019FAB8EAB0FC088EC90E076
:102DC0009DAB8CAB8CA99DA90197F1F79DAB8CAB0A
:102DD0008EA99FA901979FAB8EAB8EA99FA9009743
:102DE00069F72DC068AD79AD8AAD9BAD0E94BE007C
:102DF000DC01CB019FAB8EAB8EA99FA99BAB8AABAD
:102E00008AA99BA90197F1F79BAB8AAB18C0FE0179
:102E1000EF5BFF4F60817181828193810E94BE00D0
:102E2000DC01CB01FE01E05CFF4F8083FE01E05C32
:102E3000FF4F808189AB89A98A95F1F789ABA5E31A
:102E4000B0E0E5E3F0E080818B7F8C9380E090E060
:102E5000A8E4B2E48DA79EA7AFA7B8AB6DA57EA5E9
:102E60008FA598A92BEA3AEA4AE250E40E9494021C
:102E7000DC01CB0189A79AA7ABA7BCA769A57AA556
:102E80008BA59CA520E030E040E85FE30E949A0417
:102E900088231CF481E088A791C069A57AA58BA539
:102EA0009CA520E030E04FE753E40E943A04181656
:102EB0000CF07BC06DA57EA58FA598A920E030E021
:102EC0004AE754E40E948E03DC01CB018CA39DA34E
:102ED000AEA3BFA36CA17DA18EA19FA120E030E095
:102EE0004AEF54E40E949402DC01CB0188A399A329
:102EF000AAA3BBA368A179A18AA19BA120E030E08D
:102F000040E85FE30E949A0488232CF481E090E07B
:102F10009F8F8E8F3FC068A179A18AA19BA120E0DD
:102F20003FEF4FE757E40E943A0418164CF56CA1A6
:102F30007DA18EA19FA120E030E040E251E40E94FB
:102F40009402DC01CB01BC01CD010E94BE00DC017A
:102F5000CB019F8F8E8F0FC088EC90E09D8F8C8F60
:102F60008C8D9D8D0197F1F79D8F8C8F8E8D9F8D10
:102F700001979F8F8E8F8E8D9F8D009769F724C04C
:102F800068A179A18AA19BA10E94BE00DC01CB01AE
:102F90009F8F8E8F8E8D9F8D9B8F8A8F8A8D9B8D1D
:102FA0000197F1F79B8F8A8F0FC069A57AA58BA532
:102FB0009CA50E94BE00DC01CB0188A788A5898F53
:102FC000898D8A95F1F7898FA5E3B0E0E5E3F0E01C
:102FD0008081282F2F70FE01E75BFF4F8081882FB3
:102FE00090E082959295907F9827807F9827822BFA
:102FF0008C93A5E3B0E0E5E3F0E0808184608C93FE
:1030000080E090E0A8ECB2E48D8B9E8BAF8BB88F04
:103010006D897E898F89988D2BEA3AEA4AE250E4DD
:103020000E949402DC01CB01898B9A8BAB8BBC8B09
:1030300069897A898B899C8920E030E040E85FE3E8
:103040000E949A0488231CF481E0888B91C06989CE
:103050007A898B899C8920E030E04FE753E40E9415
:103060003A0418160CF07BC06D897E898F89988D83
:1030700020E030E04AE754E40E948E03DC01CB01FB
:103080008C879D87AE87BF876C857D858E859F8564
:1030900020E030E04AEF54E40E949402DC01CB01CE
:1030A00088879987AA87BB87688579858A859B8564
:1030B00020E030E040E85FE30E949A0488232CF48B
:1030C00081E090E09F838E833FC0688579858A8503
:1030D0009B8520E03FEF4FE757E40E943A04181623
:1030E0004CF56C857D858E859F8520E030E040E243
:1030F00051E40E949402DC01CB01BC01CD010E948D
:10310000BE00DC01CB019F838E830FC088EC90E072
:103110009D838C838C819D810197F1F79D838C83A6
:103120008E819F8101979F838E838E819F810097DF
:1031300069F724C0688579858A859B850E94BE00D1
:10314000DC01CB019F838E838E819F819B838A8349
:103150008A819B810197F1F79B838A830FC06989DC
:103160007A898B899C890E94BE00DC01CB01888B07
:103170008889898389818A95F1F78983A5E3B0E0FD
:10318000E5E3F0E080818B7F8C93C75BDF4F0FB668
:10319000F894DEBF0FBECDBFCF91DF911F910F918D
:1031A00008950F931F93DF93CF93CDB7DEB7CF5919
:1031B000D0400FB6F894DEBF0FBECDBFFE01E5567E
:1031C000FF4F80E090E0A0EAB0E480839183A28387
:1031D000B3838E0109561F4FFE01E556FF4F6081F4
:1031E00071818281938120E030E04AEF54E40E94B3
:1031F0009402DC01CB01F80180839183A283B38325
:10320000FE01E956FF4F608171818281938120E048
:1032100030E040E85FE30E949A04882344F4FE0112
:10322000EB56FF4F81E090E09183808364C0FE0104
:10323000E956FF4F608171818281938120E03FEFE9
:103240004FE757E40E943A0418160CF043C0FE0101
:10325000E556FF4F608171818281938120E030E0EB
:1032600040E251E40E949402DC01CB018E010B5636
:103270001F4FBC01CD010E94BE00DC01CB01F80153
:10328000918380831FC0FE01ED56FF4F88EC90E0D4
:1032900091838083FE01ED56FF4F808191810197DC
:1032A000F1F7FE01ED56FF4F91838083DE01AB56AF
:1032B000BF4FFE01EB56FF4F808191810197119620
:1032C0009C938E93FE01EB56FF4F80819181009776
:1032D000D1F627C08E010B561F4FFE01E956FF4F56
:1032E00060817181828193810E94BE00DC01CB01EB
:1032F000F80191838083DE01AF56BF4FFE01EB568C
:10330000FF4F808191818D939C93FE01EF56FF4F7B
:10331000808191810197F1F7FE01EF56FF4F918374
:103320008083E4E3F0E08081E4E3F0E08FEF8083EA
:10333000A5E3B0E0E5E3F0E080818B7F8C93FE01B4
:10334000E357FF4F80E090E0AAEFB4E480839183DD
:10335000A283B3838E0107571F4FFE01E357FF4F30
:1033600060817181828193812BEA3AEA4AE250E4DA
:103370000E949402DC01CB01F80180839183A28337
:10338000B383FE01E757FF4F608171818281938192
:1033900020E030E040E85FE30E949A04882334F4A0
:1033A000FE01E857FF4F81E08083E0C0FE01E75750
:1033B000FF4F608171818281938120E030E04FE78F
:1033C00053E40E943A0418160CF0C0C0FE01E35703
:1033D000FF4F608171818281938120E030E04AE774
:1033E00054E40E948E03DC01CB01FE01EC57FF4F39
:1033F00080839183A283B3838E0100581F4FFE0107
:10340000EC57FF4F608171818281938120E030E031
:103410004AEF54E40E949402DC01CB01F80180835E
:103420009183A283B383FE01E058FF4F60817181D5
:103430008281938120E030E040E85FE30E949A04BB
:10344000882344F4FE01E258FF4F81E090E091832D
:10345000808364C0FE01E058FF4F608171818281EA
:10346000938120E03FEF4FE757E40E943A0418169B
:103470000CF043C0FE01EC57FF4F608171818281E7
:10348000938120E030E040E251E40E949402DC01AC
:10349000CB018E0102581F4FBC01CD010E94BE001E
:1034A000DC01CB01F801918380831FC0FE01E45849
:1034B000FF4F88EC90E091838083FE01E458FF4F3A
:1034C000808191810197F1F7FE01E458FF4F9183CC
:1034D0008083DE01A258BF4FFE01E258FF4F80817A
:1034E0009181019711969C938E93FE01E258FF4FB4
:1034F000808191810097D1F64BC08E0102581F4FF9
:10350000FE01E058FF4F60817181828193810E94AA
:10351000BE00DC01CB01F80191838083DE01A65857
:10352000BF4FFE01E258FF4F8081918111969C931D
:103530008E93FE01E658FF4F808191810197F1F74C
:10354000FE01E658FF4F9183808322C08E01085709
:103550001F4FFE01E757FF4F608171818281938188
:103560000E94BE00DC01CB01F8018083DE01A75878
:10357000BF4FFE01E857FF4F80818C93FE01E75853
:10358000FF4F80818A95F1F7FE01E758FF4F808356
:1035900083E30E944B13FE01EB58FF4F80E090E065
:1035A000A8E4B2E480839183A283B3838E010F5891
:1035B0001F4FFE01EB58FF4F608171818281938123
:1035C0002BEA3AEA4AE250E40E949402DC01CB0181
:1035D000F80180839183A283B383FE01EF58FF4FEC
:1035E000608171818281938120E030E040E85FE377
:1035F0000E949A04882334F4FE01E059FF4F81E0D1
:103600008083E0C0FE01EF58FF4F608171818281AD
:10361000938120E030E04FE753E40E943A0418160B
:103620000CF0C0C0FE01EB58FF4F608171818281B8
:10363000938120E030E04AE754E40E948E03DC01ED
:10364000CB01FE01E459FF4F80839183A283B383B2
:103650008E0108591F4FFE01E459FF4F60817181AF
:103660008281938120E030E04AEF54E40E9494028A
:10367000DC01CB01F80180839183A283B383FE0137
:10368000E859FF4F608171818281938120E030E0B1
:1036900040E85FE30E949A04882344F4FE01EA595B
:1036A000FF4F81E090E09183808364C0FE01E85980
:1036B000FF4F608171818281938120E03FEF4FE76E
:1036C00057E40E943A0418160CF043C0FE01E45976
:1036D000FF4F608171818281938120E030E040E280
:1036E00051E40E949402DC01CB018E010A591F4F64
:1036F000BC01CD010E94BE00DC01CB01F801918329
:1037000080831FC0FE01EC59FF4F88EC90E091834D
:103710008083FE01EC59FF4F808191810197F1F781
:10372000FE01EC59FF4F91838083DE01AA59BF4F00
:10373000FE01EA59FF4F80819181019711969C9378
:103740008E93FE01EA59FF4F808191810097D1F657
:103750004BC08E010A591F4FFE01E859FF4F60818F
:103760007181828193810E94BE00DC01CB01F8014E
:1037700091838083DE01AE59BF4FFE01EA59FF4FAE
:103780008081918111969C938E93FE01EE59FF4F9B
:10379000808191810197F1F7FE01EE59FF4F9183EE
:1037A000808322C08E0100591F4FFE01EF58FF4F4A
:1037B00060817181828193810E94BE00DC01CB0116
:1037C000F8018083DE01AF59BF4FFE01E059FF4F82
:1037D00080818C93FE01EF59FF4F80818A95F1F72C
:1037E000FE01EF59FF4F808382E30E944B13FE01DD
:1037F000E35AFF4F80E090E0A8E4B2E48083918335
:10380000A283B3838E01075A1F4FFE01E35AFF4F75
:1038100060817181828193812BEA3AEA4AE250E425
:103820000E949402DC01CB01F80180839183A28382
:10383000B383FE01E75AFF4F6081718182819381DA
:1038400020E030E040E85FE30E949A04882334F4EB
:10385000FE01E85AFF4F81E08083E0C0FE01E75A95
:10386000FF4F608171818281938120E030E04FE7DA
:1038700053E40E943A0418160CF0C0C0FE01E35A4B
:10388000FF4F608171818281938120E030E04AE7BF
:1038900054E40E948E03DC01CB01FE01EC5AFF4F81
:1038A00080839183A283B3838E01005B1F4FFE014F
:1038B000EC5AFF4F608171818281938120E030E07A
:1038C0004AEF54E40E949402DC01CB01F8018083AA
:1038D0009183A283B383FE01E05BFF4F608171811E
:1038E0008281938120E030E040E85FE30E949A0407
:1038F000882344F4FE01E25BFF4F81E090E0918376
:10390000808364C0FE01E05BFF4F60817181828132
:10391000938120E03FEF4FE757E40E943A041816E6
:103920000CF043C0FE01EC5AFF4F6081718182812F
:10393000938120E030E040E251E40E949402DC01F7
:10394000CB018E01025B1F4FBC01CD010E94BE0066
:10395000DC01CB01F801918380831FC0FE01E45B91
:10396000FF4F88EC90E091838083FE01E45BFF4F82
:10397000808191810197F1F7FE01E45BFF4F918314
:103980008083DE01A25BBF4FFE01E25BFF4F8081BF
:103990009181019711969C938E93FE01E25BFF4FFC
:1039A000808191810097D1F64BC08E01025B1F4F41
:1039B000FE01E05BFF4F60817181828193810E94F3
:1039C000BE00DC01CB01F80191838083DE01A65BA0
:1039D000BF4FFE01E25BFF4F8081918111969C9366
:1039E0008E93FE01E65BFF4F808191810197F1F795
:1039F000FE01E65BFF4F9183808322C08E01085A4F
:103A00001F4FFE01E75AFF4F6081718182819381D0
:103A10000E94BE00DC01CB01F8018083DE01A75BC0
:103A2000BF4FFE01E85AFF4F80818C93FE01E75B98
:103A3000FF4F80818A95F1F7FE01E75BFF4F80839E
:103A400088E20E944B13FE01EB5BFF4F80E090E0A9
:103A5000A8E4B2E480839183A283B3838E010F5BD9
:103A60001F4FFE01EB5BFF4F60817181828193816B
:103A70002BEA3AEA4AE250E40E949402DC01CB01CC
:103A8000F80180839183A283B383FE01EF5BFF4F34
:103A9000608171818281938120E030E040E85FE3C2
:103AA0000E949A04882334F481E0FE01E05CFF4F19
:103AB00080839DC0FE01EF5BFF4F60817181828139
:103AC000938120E030E04FE753E40E943A04181657
:103AD0000CF07EC0FE01EB5BFF4F60817181828143
:103AE000938120E030E04AE754E40E948E03DC0139
:103AF000CB018CAF9DAFAEAFBFAF6CAD7DAD8EAD2A
:103B00009FAD20E030E04AEF54E40E949402DC01D3
:103B1000CB0188AF99AFAAAFBBAF68AD79AD8AAD25
:103B20009BAD20E030E040E85FE30E949A048823E8
:103B30002CF481E090E09FAB8EAB3FC068AD79ADD7
:103B40008AAD9BAD20E03FEF4FE757E40E943A0477
:103B500018164CF56CAD7DAD8EAD9FAD20E030E01C
:103B600040E251E40E949402DC01CB01BC01CD0192
:103B70000E94BE00DC01CB019FAB8EAB0FC088EC76
:103B800090E09DAB8CAB8CA99DA90197F1F79DAB03
:103B90008CAB8EA99FA901979FAB8EAB8EA99FA9D5
:103BA000009769F72DC068AD79AD8AAD9BAD0E94D5
:103BB000BE00DC01CB019FAB8EAB8EA99FA99BAB56
:103BC0008AAB8AA99BA90197F1F79BAB8AAB18C076
:103BD000FE01EF5BFF4F60817181828193810E94C2
:103BE000BE00DC01CB01FE01E05CFF4F8083FE01E3
:103BF000E05CFF4F808189AB89A98A95F1F789AB99
:103C00008EE00E944B1380E090E0A8E4B2E48DA720
:103C10009EA7AFA7B8AB6DA57EA58FA598A92BEAE7
:103C20003AEA4AE250E40E949402DC01CB0189A7FF
:103C30009AA7ABA7BCA769A57AA58BA59CA520E0F0
:103C400030E040E85FE30E949A0488231CF481E09E
:103C500088A791C069A57AA58BA59CA520E030E036
:103C60004FE753E40E943A0418160CF07BC06DA590
:103C70007EA58FA598A920E030E04AE754E40E9491
:103C80008E03DC01CB018CA39DA3AEA3BFA36CA1CB
:103C90007DA18EA19FA120E030E04AEF54E40E9474
:103CA0009402DC01CB0188A399A3AAA3BBA368A1BA
:103CB00079A18AA19BA120E030E040E85FE30E9467
:103CC0009A0488232CF481E090E09F8F8E8F3FC070
:103CD00068A179A18AA19BA120E03FEF4FE757E4BB
:103CE0000E943A0418164CF56CA17DA18EA19FA1EB
:103CF00020E030E040E251E40E949402DC01CB017C
:103D0000BC01CD010E94BE00DC01CB019F8F8E8FD4
:103D10000FC088EC90E09D8F8C8F8C8D9D8D0197CE
:103D2000F1F79D8F8C8F8E8D9F8D01979F8F8E8F3A
:103D30008E8D9F8D009769F724C068A179A18AA113
:103D40009BA10E94BE00DC01CB019F8F8E8F8E8DC8
:103D50009F8D9B8F8A8F8A8D9B8D0197F1F79B8F0B
:103D60008A8F0FC069A57AA58BA59CA50E94BE006D
:103D7000DC01CB0188A788A5898F898D8A95F1F709
:103D8000898F81E00E944B1380E090E0AAEFB4E4B9
:103D90008D8B9E8BAF8BB88F6D897E898F89988D27
:103DA0002BEA3AEA4AE250E40E949402DC01CB0199
:103DB000898B9A8BAB8BBC8B69897A898B899C891F
:103DC00020E030E040E85FE30E949A0488231CF47E
:103DD00081E0888B91C069897A898B899C8920E0F0
:103DE00030E04FE753E40E943A0418160CF07BC011
:103DF0006D897E898F89988D20E030E04AE754E410
:103E00000E948E03DC01CB018C879D87AE87BF8724
:103E10006C857D858E859F8520E030E04AEF54E4F7
:103E20000E949402DC01CB0188879987AA87BB870F
:103E3000688579858A859B8520E030E040E85FE3EE
:103E40000E949A0488232CF481E090E09F838E8363
:103E50003FC0688579858A859B8520E03FEF4FE7E5
:103E600057E40E943A0418164CF56C857D858E85C2
:103E70009F8520E030E040E251E40E949402DC01A2
:103E8000CB01BC01CD010E94BE00DC01CB019F83B0
:103E90008E830FC088EC90E09D838C838C819D8104
:103EA0000197F1F79D838C838E819F8101979F837A
:103EB0008E838E819F81009769F724C068857985FC
:103EC0008A859B850E94BE00DC01CB019F838E8387
:103ED0008E819F819B838A838A819B810197F1F7E1
:103EE0009B838A830FC069897A898B899C890E9408
:103EF000BE00DC01CB01888B8889898389818A9502
:103F0000F1F7898386E00E944B13C156DF4F0FB64D
:103F1000F894DEBF0FBECDBFCF91DF911F910F91FF
:103F20000895DF93CF93CDB7DEB76E970FB6F894B1
:103F3000DEBF0FBECDBF8D8F6E8F80E8898F80EC86
:103F40008A8F80E98B8F80ED8C8F8D8D882F90E00C
:103F50009C0121503040CE014996FC01E20FF31F35
:103F600090818E8D890F81500E944B1380E090E0EC
:103F7000A8ECB2E48D8B9E8BAF8BB88F6D897E8958
:103F80008F89988D2BEA3AEA4AE250E40E94940223
:103F9000DC01CB01898B9A8BAB8BBC8B69897A89CD
:103FA0008B899C8920E030E040E85FE30E949A041E
:103FB00088231CF481E0888B91C069897A898B8978
:103FC0009C8920E030E04FE753E40E943A04181641
:103FD0000CF07BC06D897E898F89988D20E030E060
:103FE0004AE754E40E948E03DC01CB018C879D8755
:103FF000AE87BF876C857D858E859F8520E030E00C
:104000004AEF54E40E949402DC01CB01888799872F
:10401000AA87BB87688579858A859B8520E030E003
:1040200040E85FE30E949A0488232CF481E090E04A
:104030009F838E833FC0688579858A859B8520E034
:104040003FEF4FE757E40E943A0418164CF56C8591
:104050007D858E859F8520E030E040E251E40E941E
:104060009402DC01CB01BC01CD010E94BE00DC0149
:10407000CB019F838E830FC088EC90E09D838C835F
:104080008C819D810197F1F79D838C838E819F8127
:1040900001979F838E838E819F81009769F724C04B
:1040A000688579858A859B850E94BE00DC01CB01ED
:1040B0009F838E838E819F819B838A838A819B814C
:1040C0000197F1F79B838A830FC069897A898B896D
:1040D0009C890E94BE00DC01CB01888B8889898382
:1040E00089818A95F1F789836E960FB6F894DEBFC1
:1040F0000FBECDBFCF91DF910895DF93CF9300D056
:10410000CDB7DEB79A8389830BC0E981FA8120811C
:1041100089819A8101969A838983822F0E940E1643
:10412000E981FA818081882381F70F900F90CF91E8
:10413000DF910895DF93CF93CDB7DEB72E970FB6FB
:10414000F894DEBF0FBECDBF81E00E944B1380E02C
:1041500090E0A0E0B0E48B879C87AD87BE876B853D
:104160007C858D859E8520E030E04AEF54E40E94F6
:104170009402DC01CB018F839887A987BA876F816E
:10418000788589859A8520E030E040E85FE30E94E9
:104190009A0488232CF481E090E09E838D833FC0B5
:1041A0006F81788589859A8520E03FEF4FE757E456
:1041B0000E943A0418164CF56B857C858D859E858A
:1041C00020E030E040E251E40E949402DC01CB01A7
:1041D000BC01CD010E94BE00DC01CB019E838D831A
:1041E0000FC088EC90E09C838B838B819C8101972E
:1041F000F1F79C838B838D819E8101979E838D83B4
:104200008D819E81009769F714C06F8178858985BB
:104210009A850E94BE00DC01CB019E838D838D8137
:104220009E819A83898389819A810197F1F79A8384
:1042300089832E960FB6F894DEBF0FBECDBFCF9107
:10424000DF910895DF93CF93CDB7DEB768970FB6B0
:10425000F894DEBF0FBECDBF8CE00E944B1380E010
:1042600090E0A8ECB2E48D8B9E8BAF8BB88F6D89FC
:104270007E898F89988D2BEA3AEA4AE250E40E94BF
:104280009402DC01CB01898B9A8BAB8BBC8B698947
:104290007A898B899C8920E030E040E85FE30E94C6
:1042A0009A0488231CF481E0888B91C069897A89FB
:1042B0008B899C8920E030E04FE753E40E943A0468
:1042C00018160CF07BC06D897E898F89988D20E04F
:1042D00030E04AE754E40E948E03DC01CB018C8776
:1042E0009D87AE87BF876C857D858E859F8520E005
:1042F00030E04AEF54E40E949402DC01CB0188874D
:104300009987AA87BB87688579858A859B8520E000
:1043100030E040E85FE30E949A0488232CF481E0B7
:1043200090E09F838E833FC0688579858A859B85D1
:1043300020E03FEF4FE757E40E943A0418164CF58F
:104340006C857D858E859F8520E030E040E251E4DC
:104350000E949402DC01CB01BC01CD010E94BE0091
:10436000DC01CB019F838E830FC088EC90E09D839E
:104370008C838C819D810197F1F79D838C838E8145
:104380009F8101979F838E838E819F81009769F71C
:1043900024C0688579858A859B850E94BE00DC01E2
:1043A000CB019F838E838E819F819B838A838A81A9
:1043B0009B810197F1F79B838A830FC069897A8972
:1043C0008B899C890E94BE00DC01CB01888B888987
:1043D000898389818A95F1F7898368960FB6F89465
:1043E000DEBF0FBECDBFCF91DF9108950F931F9316
:1043F000DF93CF93CDB7DEB7A2970FB6F894DEBFA9
:104400000FBECDBF0E94D1180E94710781E061E00C
:104410000E94911F1A82198289819A818E3091059A
:1044200011F41A8219820E9488079E838D838D81E0
:104430009E819AA389A389A19AA18830910509F444
:104440008DC189A19AA1893091055CF589A19AA1B4
:104450008430910509F4DAC089A19AA185309105CB
:104460009CF489A19AA18230910509F477C089A1B1
:104470009AA1833091050CF09DC089A19AA1813049
:10448000910509F43FC0C8C289A19AA1863091055F
:1044900009F40CC189A19AA1873091050CF032C1B1
:1044A000D9C089A19AA18C30910509F4FFC189A1D5
:1044B0009AA18D3091056CF489A19AA18A30910559
:1044C00009F49CC189A19AA18B3091050CF0C2C15D
:1044D00069C189A19AA18E30910509F425C289A1EB
:1044E0009AA18E3091050CF405C289A19AA18F3052
:1044F000910509F443C289A19AA18031910509F47B
:1045000068C28AC28981982F9E5F81E0692F0E94CC
:10451000911F80E690E00E947D2087E090E09E87DA
:104520008D878F8598899C01220F331FC901880FC1
:10453000991F880F991F280F391F8D859E85820F1F
:10454000931F988B8F878F819885019698878F838B
:1045500089819A8101969A8389835EC28981982F85
:104560009E5F81E0692F0E94911F82E690E00E9489
:104570007D2088E090E09E878D878F8598899C01BB
:10458000220F331FC901880F991F880F991F280F09
:10459000391F8D859E85820F931F988B8F878F8102
:1045A0009885019698878F8389819A8101969A834D
:1045B000898332C28981982F9E5F81E0692F0E9492
:1045C000911F84E690E00E947D2089E090E09E8724
:1045D0008D878F8598899C01220F331FC901880F11
:1045E000991F880F991F280F391F8D859E85820F6F
:1045F000931F988B8F878F819885019698878F83DB
:1046000089819A8101969A83898306C28981982F2C
:104610009E5F81E0692F0E94911F86E690E00E94D4
:104620007D208F8598899A8B898B9F8181E0692F66
:104630000E94911F81E090E09E8B8D8B88E090E03E
:1046400098878F83188A1F8689819A8101969A8319
:104650008983E2C18981982F9E5F81E0692F0E9442
:10466000911F88E690E00E947D2084E090E09E8784
:104670008D878F8598899C01220F331FC901880F70
:10468000991F880F991F280F391F8D859E85820FCE
:10469000931F988B8F878F819885019698878F833A
:1046A00089819A8101969A838983B6C18981982FDD
:1046B0009E5F81E0692F0E94911F8AE690E00E9430
:1046C0007D2085E090E09E878D878F8598899C016D
:1046D000220F331FC901880F991F880F991F280FB8
:1046E000391F8D859E85820F931F988B8F878F81B1
:1046F0009885019698878F8389819A8101969A83FC
:1047000089838AC18981982F9E5F81E0692F0E94E9
:10471000911F8CE690E00E947D2086E090E09E87CD
:104720008D878F8598899C01220F331FC901880FBF
:10473000991F880F991F280F391F8D859E85820F1D
:10474000931F988B8F878F819885019698878F8389
:1047500089819A8101969A8389835EC18981982F84
:104760009E5F81E0692F0E94911F8EE690E00E947B
:104770007D208F8598899A8B898B998181E0692F1B
:104780000E94911F89819A8101969A83898382E090
:1047900090E09E8B8D8B88E090E098878F83188ABD
:1047A0001F863AC18981982F9E5F81E0692F0E9400
:1047B000911F80E790E00E947D2081E090E09E873D
:1047C0008D878F8598899C01220F331FC901880F1F
:1047D000991F880F991F280F391F8D859E85820F7D
:1047E000931F988B8F878F819885019698878F83E9
:1047F00089819A8101969A8389830EC18981982F34
:104800009E5F81E0692F0E94911F82E790E00E94E5
:104810007D2082E090E09E878D878F8598899C011E
:10482000220F331FC901880F991F880F991F280F66
:10483000391F8D859E85820F931F988B8F878F815F
:104840009885019698878F8389819A8101969A83AA
:104850008983E2C08981982F9E5F81E0692F0E9441
:10486000911F84E790E00E947D2083E090E09E8786
:104870008D878F8598899C01220F331FC901880F6E
:10488000991F880F991F280F391F8D859E85820FCC
:10489000931F988B8F878F819885019698878F8338
:1048A00089819A8101969A838983B6C08981982FDC
:1048B0009E5F81E0692F0E94911F86E790E00E9431
:1048C0007D208F8598899A8B898B998181E0692FCA
:1048D0000E94911F89819A8101969A83898383E03E
:1048E00090E09E8B8D8B88E090E098878F83188A6C
:1048F0001F8692C00E949A2018861F828981982F55
:104900009E5F81E0692F0E94911F1C821B821C8A7E
:104910001B8A80E090E0A0E0B0E089879A87AB87AF
:10492000BC871A82198278C08981982F9E5F81E0A6
:10493000692F0E94911F88E790E00E947D201E86CB
:104940001D868F8598899C01220F331FC901880F0E
:10495000991F880F991F280F391F8D859E85820FFB
:10496000931F988B8F878F819885019698878F8367
:1049700089819A8101969A8389834EC08981982F73
:104980009E5F81E0692F0E94911F8AE790E00E945C
:104990007D2088E090E098878F838F8598899C8B15
:1049A0008B8BCE0141969E012D5E3F4FAE014B5E3B
:1049B0005F4FB9010E942E25DC01CB0189879A87C0
:1049C000AB87BC871A82198281E090E09C838B833D
:1049D00023C08981982F9E5F81E0692F0E94911FDB
:1049E0008CE790E00E947D208F8598899A8B898B37
:1049F000998181E0692F0E94911F84E090E09E8B55
:104A00008D8B88E090E098878F83188A1F86898134
:104A10009A8101969A8389838F8198858830910540
:104A20000CF4FACC8B819C81181619060CF0F4CC8E
:104A300082E064E00E94911F89859A85AB85BC85E0
:104A4000FE017796BC01CD014AE023E08F010E9470
:104A50001A26CE0147960E947D20D8CCEF92FF9275
:104A60000F931F93DF93CF93CDB7DEB72A970FB67F
:104A7000F894DEBF0FBECDBF9E838D8378876F8392
:104A80005A874987E985FA8580819181843091052B
:104A9000C9F4ED81FE8120813181EF81F88580812B
:104AA0009181820F931FAA2797FDA095BA2FBC0171
:104AB000CD010E94CA04DC01CB0189839A83AB83B8
:104AC000BC836EC0E985FA85808191818330910530
:104AD000D9F4ED81FE8120813181EF81F8858081DB
:104AE0009181A901481B590BCA01AA2797FDA095DE
:104AF000BA2FBC01CD010E94CA04DC01CB0189831D
:104B00009A83AB83BC834CC0E985FA85808191810F
:104B100082309105F9F4ED81FE8120813181EF81B0
:104B2000F88580819181AC01249FC001259F900D63
:104B3000349F900D1124AA2797FDA095BA2FBC0190
:104B4000CD010E94CA04DC01CB0189839A83AB8327
:104B5000BC8326C0ED81FE8180819181AA2797FDCB
:104B6000A095BA2FBC01CD010E94CA047B018C0123
:104B7000EF81F88580819181AA2797FDA095BA2FB2
:104B8000BC01CD010E94CA049B01AC01C801B70160
:104B90000E948E03DC01CB0189839A83AB83BC83A3
:104BA00089819A81AB81BC81BC01CD012A960FB667
:104BB000F894DEBF0FBECDBFCF91DF911F910F9153
:104BC000FF90EF9008952F923F924F925F926F92D5
:104BD0007F928F929F92AF92BF92CF92DF92EF928D
:104BE000FF920F931F93CF93DF93CDB7DEB7CA1B0E
:104BF000DB0B0FB6F894DEBF0FBECDBF09942A8839
:104C0000398848885F846E847D848C849B84AA84E0
:104C1000B984C884DF80EE80FD800C811B81AA816D
:104C2000B981CE0FD11D0FB6F894DEBF0FBECDBF38
:104C3000ED010895EF92FF920F931F93F22FF02E44
:104C400047FD02C0E4E001C0E4E1242F332727FD43
:104C5000309537FF03C0309521953F4F4F2D512F91
:104C60000F2FEE2E0E943B268F2D912F1F910F911B
:104C7000FF90EF900895A9E0B0E0E1E4F6E20C9433
:104C8000E7256A01122FA02EBE2C2BE3201718F463
:104C90002CE3922E02C0902E9394AE014F5F5F4F93
:104CA00027E0092D0E949D27BC018981E82EFF2461
:104CB000C70189709070019711F4ADE209C0B1FE8F
:104CC00002C0ABE205C0B0FC02C0A0E001C0A0E29F
:104CD000E3FE3BC0AA2311F423E001C024E0211726
:104CE00010F020E002C0121B212FEB2CB4FE02C0FA
:104CF000322F0AC0F601322F80E202C08193315078
:104D00003323E1F7C20ED11CAA2319F0F601A193B7
:104D10006F01F6013196E2FE05C09EE4D6019C9338
:104D200081E404C09EE6D6019C9381E611968C93A3
:104D300091833296DF01832F90E202C09D938150D0
:104D40008823E1F7E30FF11D40C0E2FE42C0AA2331
:104D500011F423E001C024E0211710F020E002C08C
:104D6000121B212FEB2CB4FE02C0922F0AC0F601B9
:104D7000922F80E202C0819391509923E1F7C20EF5
:104D8000D11CAA2319F0F601A1936F01F601319607
:104D9000E2FE08C089E4D6018C938EE411968C93D0
:104DA00086E407C089E6D6018C938EE611968C9333
:104DB00086E681833296DF01892F20E202C02D939F
:104DC00081508823E1F7E90FF11D10822EEF3FEFAC
:104DD000AFC0161617061CF041E050E003C0AB014F
:104DE0004F5F5F4FAA2019F480E090E003C08A2D46
:104DF00090E0019620E030E0AA2311F021E030E0BD
:104E0000240F351F280F391F812F90E028173907ED
:104E100014F020E002C0121B212F4B2D50E0CA01DC
:104E200080719070B4FC0DC0B3FC0BC0F601322F42
:104E300040E202C0419331503323E1F7C20ED11C4E
:104E400001C0322FAA2319F0F601A1936F01892B1B
:104E500011F0132F0AC0F601132F80E302C08193D3
:104E600011501123E1F7C30ED11C092D060FBA8092
:104E700090E1892E912C8E209F20E4FE04C0F1E366
:104E8000BF1609F40150101614F001E003C00930F8
:104E900008F008E09B0177FF02C020E030E0CB0182
:104EA0000196821B930BFE013196E80FF91F8EE2EB
:104EB000F82E3B01601A71088A2D90E0442755278F
:104EC000481B590B8FEF2F3F380719F4D601FD927D
:104ED0006D01621773072CF06216730614F480815B
:104EE00001C080E32150304031962417350724F06B
:104EF000D6018D936D01E6CF2617370749F4B5E348
:104F0000BB1528F0BB1621F48114910409F481E348
:104F1000F6018193D601812F90E202C09C938150CB
:104F200011968823D9F7E10FF11D108220E030E0BF
:104F3000C9012996EEE00C940326283008F027E0FA
:104F40003327DA01990F311D87FD916000966105C5
:104F5000710539F432602E5F3D9330E32A95E1F715
:104F600008959F3F30F080387105610509F03C5F7E
:104F70003C5F3D93913008F08068911DDF93CF93A3
:104F80001F930F93FF92EF92192F987F9695E92F19
:104F900096959695E90FFF27E255FF4F99273327FE
:104FA000EE24FF24A701E70105900894079428F454
:104FB000360FE71EF81E491F511D660F771F881F09
:104FC000991F0694A1F70590079428F4E70EF81EA0
:104FD000491F561FC11D770F881F991F661F069412
:104FE000A1F70590079428F4F80E491F561FC71F14
:104FF000D11D880F991F661F771F0694A1F7059092
:10500000079420F4490F561FC71FD81F990F661F1A
:10501000771F881F0694A9F784911095177041F0A7
:10502000D695C79557954795F794E7941A95C1F784
:10503000E4E5F0E0689415901591359165919591AE
:1050400005907FE27395E118F10A430B560BC90BEB
:10505000D009C0F7E10CF11E431F561FC91FD01D18
:105060007EF4703311F48A95E6CFE894015030F065
:10507000080F0AF40027021708F4202F2395022FA7
:105080007A3328F079E37D932A95E9F710C07D9370
:105090002A9589F6069497956795379517951794ED
:1050A000E118F10A430B560BC90BD00998F0239570
:1050B0007E9173957A3308F070E37C932013B8F7F0
:1050C0007E9170617D9330F0839571E37D9370E301
:1050D0002A95E1F71124EF90FF900F911F91CF9146
:0E50E000DF91992787FD90950895F894FFCFF2
:1050EE003700380039002F003400350036005800E4
:1050FE003100320033002D0030003D002B00000047
:10510E000000000000000001020203030303040478
:10511E000404040404040505050505050505050537
:10512E000505050505050606060606060606060617
:10513E000606060606060606060606060606060601
:10514E0006060606060607070707070707070707E7
:10515E0007070707070707070707070707070707D1
:10516E0007070707070707070707070707070707C1
:10517E0007070707070707070707070707070707B1
:10518E000707070707070808080808080808080897
:10519E000808080808080808080808080808080881
:1051AE000808080808080808080808080808080871
:1051BE000808080808080808080808080808080861
:1051CE000808080808080808080808080808080851
:1051DE000808080808080808080808080808080841
:1051EE000808080808080808080808080808080831
:1051FE000808080808080808080808080808080821
:06520E000808080808086A
:00000001FF
