:100000000C942A000C9447000C9447000C94470071
:100010000C9447000C9447000C9447000C94470044
:100020000C9447000C9447000C9447000C94470034
:100030000C9447000C9447000C9447000C94470024
:100040000C9447000C9447000C9447000C94470014
:100050000C94470011241FBECFE5D8E0DEBFCDBF12
:1000600010E0A0E6B0E0EEE5F7E002C005900D92EA
:10007000AA3FB107D9F711E0AAEFB0E001C01D9285
:10008000A532B107E1F70E941C030C94AD030C9458
:10009000000011B880E280B90895982F84EA86BFE5
:1000A00006B607FEFDCF81B1887F883011F080E071
:1000B000089593B984E886BF06B607FEFDCF81B1E7
:1000C000887F883111F481E00895803211F083E057
:1000D000089582E00895982F84EA86BF06B607FE49
:1000E000FDCF81B1887F803111F080E0089593B910
:1000F00084E886BF06B607FEFDCF81B1887F8034D5
:1001000011F481E00895883411F083E0089582E0CD
:10011000089583B984E886BF06B607FEFDCF81B196
:10012000887F883211F480E00895803311F082E0F6
:10013000089581E0089584EC86BF06B607FEFDCFE2
:1001400083B1089584E886BF06B607FEFDCF83B16C
:10015000089584E986BF06B604FCFDCF08959BB3DD
:10016000282F207F9F70292B2BBBD898D998DA9AFB
:1001700025E8922F9A95F1F7DA98922F9A95F1F750
:100180009BB38295807F9F70982B9BBBDA9A2A95B0
:10019000F1F7DA9808959BB3282F207F9F70292BC1
:1001A0002BBBD89AD998DA9A95E8292F2A95F1F796
:1001B000DA989A95F1F79BB38295807F9F70982B80
:1001C0009BBBDA9A88EC90E00197F1F7DA980895F2
:1001D000EF92FF921F9380E197E20197F1F78AB3C4
:1001E0008FEF8ABBDA9880EAE82E8FE0F82EC701FD
:1001F0000197F1F783E30E94AF0015E8812F8A95FC
:10020000F1F782E30E94AF00812F8A95F1F788E22F
:100210000E94AF00812F8A95F1F78EE00E94AF0017
:100220001A95F1F781E00E94AF00C7010197F1F73D
:1002300086E00E94AF001F91FF90EF900895DF933A
:10024000CF9300D000D0CDB7DEB790E8998390EC83
:100250009A8390E99B8390ED9C836150FE01E80FA7
:10026000F11D8081860F0E94AF0088EC90E001971D
:10027000F1F70F900F900F900F90CF91DF910895AD
:10028000CF93DF93EC0103C021960E94CB008881BD
:100290008823D1F7DF91CF91089581E00E94AF00CC
:1002A00080EA9FE00197F1F708958CE00E94AF008B
:1002B00088EC90E00197F1F70895889A909880E48F
:1002C0009CE90197F1F7909A089588988099FECF5C
:1002D000809BFECF8099FECF08958091FA0020E0A8
:1002E00030E040E5809BFECF942F9A95F1F7992757
:1002F00087FD9095809B03C0880F816001C0880FA7
:100300008099FECF2F5F3F4F2830310559F78093FA
:10031000FA0008958F70805D089582958F70805DDA
:1003200008951F93182F80ED0E944D00812F0E9489
:10033000890081ED0E946B000E949B008093200148
:100340000E949B00809322010E949B008093FF00EB
:100350000E94A20080931D010E94A9001F91089590
:10036000EF92FF920F931F93182F062FF42EE22E79
:1003700080ED0E944D0083E00E948900812F0E9441
:100380008900802F0E9489008F2D0E9489008E2D68
:100390000E9489000E94A9001F910F91FF90EF9089
:1003A0000895EF92FF920F931F93E82E062F142FBC
:1003B000F22E80ED0E944D0080E00E948900812F86
:1003C0000E948900802F0E9489008F2D8E290E9413
:1003D00089000E94A9001F910F91FF90EF9008954E
:1003E0001F93182F80ED0E944D00812F0E948900DD
:1003F00081ED0E946B000E949B00809305010E948A
:100400009B00809306010E94A20080930F010E942E
:10041000A9001F91089580E00E94F00180910F01D2
:10042000982F9F7192959F70905D90931001982FD7
:100430009F70905D9093110185FF07C081E06FE090
:100440000E941F0180E690E006C081E06FE00E94FC
:100450001F0183E690E00E9440012AE320931201ED
:1004600090910601892F82958F70805D8093130192
:100470009F70905D90931401209315019091050158
:10048000892F82958F70805D809316019F70905D9B
:100490009093170181E061E00E941F0186E690E0E1
:1004A0000E94400181E066E00E941F0180E191E02E
:1004B0000E94400183E00E9491018091200180937D
:1004C0001A0110921B0182E061E00E941F01E0917D
:1004D0001A01F0911B01EE0FFF1FE851FF4F8081C1
:1004E00091810E94400190912201892F82958F7005
:1004F000805D8093FB009F70905D9093FC0080E294
:100500008093FD009091FF00892F82958F70805D10
:1005100080930C019F70905D90930D018CE091E0B1
:100520000E944203909324018093230182E065E0BE
:100530000E941F018BEF90E00E94400182E068E082
:100540000E941F01E0912301F0912401EE0FFF1F93
:10055000E253FF4F808191810E94400180ED97E03E
:1005600028EC30E0F9013197F1F70197D9F70E94B3
:100570004D01089582E061E00E941F010E945D012B
:100580000E9465010E946D0180931F010E946D0110
:10059000809319010E946D0180931E010E946D01DC
:1005A000809321010E946D0180931C0180911F01A5
:1005B000992787FD909567E071E04AE050E00E943E
:1005C00060038CE690E00E94400182E06AE00E94B5
:1005D0001F0187E091E00E94400186E790E00E94C1
:1005E000400181E061E00E941F0188E790E00E94E5
:1005F000400181E06DE00E941F0180911E0199275A
:1006000087FD909560E071E04AE050E00E94600351
:1006100080E091E00E94400185E890E00E94400166
:1006200088EB9BE028EC30E0F9013197F1F7019776
:10063000D9F70E944D0108950F931F93CF93DF9335
:100640000E94E80017BAC0E0D0E000EA1FE002C054
:10065000C0E0D0E0B19B07C0C8010197F1F7B199A4
:10066000FECF219605C0209719F40E940B02F2CF0D
:10067000C130D10519F40E94BA02ECCFC230D105C5
:1006800049F7E6CFFC0188279927E8942191203289
:10069000E9F3293010F02E30C8F32B3241F02D321F
:1006A00039F4689404C00E948103820F911D219146
:1006B00020532A30C0F31EF4909581959F4F0895E2
:1006C000FB019F01E8944230C4F04532B4F44A3053
:1006D00029F497FB1EF4909581959F4F642F7727FF
:1006E0000E949903805D8A330CF0895D8193CB0170
:1006F0000097A1F716F45DE251931082C9010C94A2
:1007000089037AE0979F902D879F802D910D11246A
:100710000895DC01FC01672F71917723E1F732978F
:1007200004C07C916D9370836291AE17BF07C8F3CC
:100730000895AA1BBB1B51E107C0AA1FBB1FA61728
:10074000B70710F0A61BB70B881F991F5A95A9F77A
:0E07500080959095BC01CD010895F894FFCFDF
:10075E00504D00414D0054494D453A0068756D6944
:10076E00646974793D00250054656D70657261741D
:10077E007572653D002743006A756E0066656200FE
:10078E006D617200617072006D6179006A756C0046
:10079E0061756700736570006F6374006E6F76002D
:1007AE006465630053756E004D6F6E005475650081
:1007BE005765640054687500467269005361740091
:1007CE0088008C0090009400980088009C00A00087
:1007DE00A400A800AC00B0000000B400B800BC003B
:0A07EE00C000C400C800CC000000E9
:00000001FF
