S025000052544320696E746572666163696E6720776974682061746D65676133322E737265639C
S11300000C942A000C9447000C9447000C9447006D
S11300100C9447000C9447000C9447000C94470040
S11300200C9447000C9447000C9447000C94470030
S11300300C9447000C9447000C9447000C94470020
S11300400C9447000C9447000C9447000C94470010
S11300500C94470011241FBECFE5D8E0DEBFCDBF0E
S113006010E0A0E6B0E0EEE9F5E002C005900D92E4
S1130070AE3DB107D9F720E0AEEDB0E001C01D926E
S1130080A93FB207E1F70E94BE010C94CD020C9483
S1130090000011B880E280B9089594EA96BF06B6CC
S11300A007FEFDCF91B1987F983071F483B984E84D
S11300B086BF06B607FEFDCF81B1887F883131F057
S11300C0803231F482E0089580E0089581E008955B
S11300D083E0089594EA96BF06B607FEFDCF91B17A
S11300E0987F903171F483B984E886BF06B607FE21
S11300F0FDCF81B1887F803431F0883431F482E0DF
S1130100089580E0089581E0089583E0089583B917
S113011084E886BF06B607FEFDCF81B1887F8832AA
S113012021F0803321F481E0089580E0089582E095
S1130130089584EC86BF06B607FEFDCF83B108950B
S113014084E886BF06B607FEFDCF83B1089584E92F
S113015086BF06B604FCFDCF08959BB3282F207FED
S11301609F70922B9BBBD898D998DA9A35E83A9528
S1130170F1F70000DA9895E89A95F1F700002BB3AF
S113018030E1839FC0011124922F9F70892B8BBB78
S1130190DA9A85E88A95F1F70000DA9808959BB316
S11301A0282F207F9F70922B9BBBD89AD998DA9ADC
S11301B035E83A95F1F70000DA9895E89A95F1F761
S11301C000002BB330E1839FC0011124922F9F7054
S11301D0892B8BBBDA9A87EC90E00197F1F700C08A
S11301E00000DA9808958FE097E20197F1F700C0D4
S11301F000008AB38FEF8ABBDA988FE99FE00197FA
S1130200F1F700C0000083E30E94AD0095E89A95E1
S1130210F1F7000082E30E94AD0085E88A95F1F7CA
S1130220000088E20E94AD0095E89A95F1F700007D
S11302308EE00E94AD0085E88A95F1F7000081E028
S11302400E94AD008FE99FE00197F1F700C0000024
S113025086E00E94AD000895CF93DF9300D000D0D4
S1130260CDB7DEB790E8998390EC9A8390E99B83AD
S113027090ED9C836150FE01E80FF11D8081860F93
S11302800E94AD0087EC90E00197F1F700C00000F8
S11302900F900F900F900F90DF91CF910895CF930F
S11302A0DF93EC018881882331F021960E94CF00EE
S11302B089918111FBCFDF91CF91089581E00E9454
S11302C0AD008FE99FE00197F1F700C000000895A9
S11302D0CF93C82F80ED0E944D008C2F0E94870081
S11302E081ED0E946A000E9499008093E3000E94BD
S11302F099008093E4000E94A0008093E8000E948B
S1130300A700CF9108951F93CF93DF93D62F142F77
S1130310C22FC82B80ED0E944D0080E00E94870010
S1130320812F0E9487008D2F0E9487008C2F0E94AE
S113033087000E94A700DF91CF911F910895CF936A
S1130340C82F80ED0E944D008C2F0E94870081ED04
S11303500E946A000E9499008093F5000E9499000F
S11303608093F6000E9499008093E2000E94A0000E
S11303708093F4000E94A700CF9108950E94490041
S11303800E94F30020E446E569E581E10E948301CF
S11303900F2EF9EEEF2EF0E0FF2EF02D0F2EFAEED9
S11303A0AF2EF0E0BF2EF02D0F2EFBEECF2EF0E09F
S11303B0DF2EF02D0F2EFCEE8F2EF0E09F2EF02D71
S11303C00F2EFDEE6F2EF0E07F2EF02D0F2EFEEEA1
S11303D04F2EF0E05F2EF02D0F2EFFEE2F2EF0E0CB
S11303E03F2EF02D0EED10E0C5EED0E080E00E942F
S11303F068018091E80084FB992790F9905DF701EA
S11304009083982F9F70905DF501908385FF09C0BC
S11304106FE081E00E942C018AE890E00E944F0185
S113042008C06FE081E00E942C018DE890E00E94FA
S11304304F018AE3F60180839091E400292F2295ED
S11304402F70205DF40120839F70905DF3019083F1
S1130450F20180838091E300982F92959F70905DC4
S1130460F10190838F70805DE0EFF0E0808361E0C4
S113047081E00E942C0180E990E00E944F0166E037
S113048081E00E942C01C7010E944F0183E00E9479
S11304909F018091F50090E09093F3008093F20027
S11304A061E082E00E942C01E091F200F091F300FF
S11304B0EE0FFF1FE25AFF4F808191810E944F018E
S11304C08091F600982F92959F70905DF80190832B
S11304D08F70805DEFEDF0E0808380E2E0EEF0E08D
S11304E080838091E200982F92959F70905D98830D
S11304F08F70805DE6EEF0E08083CE010E94A7025B
S11305009093F8008093F70065E082E00E942C014C
S1130510C8010E944F0168E082E00E942C01E09132
S1130520F700F091F800EE0FFF1FE259FF4F8081B2
S113053091810E944F01FFEF21EE84E0F1502040B1
S11305408040E1F700C000000E945E014FCFFC0133
S113055088279927E89421912032E9F3293010F073
S11305602E30C8F32B3241F02D3239F4689404C094
S11305700E94C502820F911D219120532A30C0F39D
S11305801EF4909581959F4F08957AE0979F902D42
S1110590879F802D910D11240895F894FFCFBC
S113059E96009A009E00A200A600AA00AE000000DB
S11305AEB200B600BA00BE00C200B200C600CA0055
S11305BECE00D200D600DA000000504D00414D00AE
S11305CE54494D453A0053756E004D6F6E00547587
S11305DE650057656400546875004672690053617E
S11305EE74006A756E00666562006D6172006170FA
S11305FE72006D6179006A756C00617567007365D0
S111060E70006F6374006E6F760064656300A5
S9030000FC
