:1000000012C02CC02BC02AC029C028C027C026C0BF
:1000100025C024C023C022C021C020C01FC01EC0D4
:100020001DC01CC01BC011241FBECFE5D4E0DEBF25
:10003000CDBF10E0A0E6B0E0E6E1F6E002C005903A
:100040000D92A836B107D9F720E0A8E6B0E001C0CC
:100050001D92A637B207E1F7C5D0DBC2D1CF92B36C
:10006000282F207F9F70922B92BB90989198929A04
:1000700035E83A95F1F70000929895E89A95F1F7EE
:10008000000022B330E1839FC0011124922F9F70A2
:10009000892B82BB929A85E88A95F1F700009298A5
:1000A000089592B3282F207F9F70922B92BB909A35
:1000B0009198929A35E83A95F1F70000929895E870
:1000C0009A95F1F7000022B330E1839FC00111241B
:1000D000922F9F70892B82BB929A87EC90E00197B8
:1000E000F1F700C00000929808958FE097E2019721
:1000F000F1F700C0000081B38FEF81BB92988FE9C8
:100100009FE00197F1F700C0000083E3A8DF95E8C6
:100110009A95F1F7000082E3A2DF85E88A95F1F76E
:10012000000088E29CDF95E89A95F1F700008EE0E8
:1001300096DF85E88A95F1F7000081E090DF8FE98E
:100140009FE00197F1F700C0000086E088DF089586
:10015000CF93DF9300D000D0CDB7DEB790E899837E
:1001600090EC9A8390E99B8390ED9C836150FE0113
:10017000E80FF11D8081860F72DF87EC90E0019718
:10018000F1F700C000000F900F900F900F90DF91DB
:10019000CF910895CF93DF93EC018881882329F0D4
:1001A00021967FDF89918111FCCFDF91CF91089556
:1001B00081E055DF8FE99FE00197F1F700C0000073
:1001C00008958CE287BBBC98C29A81E58DB90895E9
:1001D0008FEF8FB9779BFECF8FB10895C2980895A6
:1001E000C29A089582DFEDDF61E081E0B1DF80E651
:1001F00090E0D0DFF3DF8FEC97E00197F1F700C0DC
:100200000000E6DF10926A0080936B00E1DF20912E
:100210006A0030916B00282B30936B0020936A00AA
:10022000DFDF60916A0070916B007F77769567954C
:100230007695679570936B0060936A0080E090E01C
:10024000BAD020E030E040E85EE343D120E030E087
:1002500048EC51E41FD083D0709375006093740014
:1002600061E082E075DF4AE050E06CE670E080918A
:1002700074009091750090D18CE690E08BDF9FEF39
:1002800022E587E0915020408040E1F700C0000067
:100290008FDFAACF5058BB27AA270ED0E0C0D1D0FD
:1002A00030F0D6D020F031F49F3F11F41EF4C6C0D8
:1002B0000EF4E095E7FBBCC0E92FE2D080F3BA175B
:1002C000620773078407950718F071F49EF5FAC06A
:1002D0000EF4E0950B2EBA2FA02D0B01B901900161
:1002E0000C01CA01A0011124FF27591B99F0593FA5
:1002F00050F4503E68F11A16F040A22F232F342FED
:100300004427585FF3CF469537952795A795F0403A
:100310005395C9F77EF41F16BA0B620B730B840B4F
:10032000BAF09150A1F0FF0FBB1F661F771F881F07
:10033000C2F70EC0BA0F621F731F841F48F487955F
:1003400077956795B795F7959E3F08F0B3CF93954E
:10035000880F08F09927EE0F97958795089598D004
:1003600088F09F5790F0B92F9927B751A0F0D1F09E
:10037000660F771F881F991F1AF0BA95C9F712C028
:10038000B13081F09FD0B1E008959CC0672F782FE5
:100390008827B85F39F0B93FCCF386957795679594
:1003A000B395D9F73EF490958095709561957F4F00
:1003B0008F4F9F4F0895E89409C097FB3EF49095A6
:1003C0008095709561957F4F8F4F9F4F9923A9F02E
:1003D000F92F96E9BB279395F695879577956795BD
:1003E000B795F111F8CFFAF4BB0F11F460FF1BC001
:1003F0006F5F7F4F8F4F9F4F16C0882311F096E994
:1004000011C0772321F09EE8872F762F05C0662341
:1004100071F096E8862F70E060E02AF09A95660FFA
:10042000771F881FDAF7880F9695879597F90895B3
:1004300097F99F6780E870E060E008959FEF80EC97
:10044000089500240A94161617061806090608953A
:1004500000240A9412161306140605060895092EA0
:100460000394000C11F4882352F0BB0F40F4BF2B0F
:1004700011F460FF04C06F5F7F4F8F4F9F4F08954F
:1004800057FD9058440F551F59F05F3F71F0479545
:10049000880F97FB991F61F09F3F79F0879508952A
:1004A000121613061406551FF2CF4695F1DF08C049
:1004B000161617061806991FF1CF86957105610566
:1004C00008940895E894BB2766277727CB0197F90E
:1004D00008950BD0C4CFB5DF28F0BADF18F095230C
:1004E00009F0A6CFABCF1124EECFCADFA0F3959FC2
:1004F000D1F3950F50E0551F629FF001729FBB270B
:10050000F00DB11D639FAA27F00DB11DAA1F649FB6
:100510006627B00DA11D661F829F2227B00DA11D69
:10052000621F739FB00DA11D621F839FA00D611DEF
:10053000221F749F3327A00D611D231F849F600D10
:10054000211D822F762F6A2F11249F5750408AF049
:10055000E1F088234AF0EE0FFF1FBB1F661F771FD5
:10056000881F91505040A9F79E3F510570F060CF11
:10057000AACF5F3FECF3983EDCF3869577956795BD
:10058000B795F795E7959F5FC1F7FE2B880F911DF3
:100590009695879597F908954532510518F442309C
:1005A00008F004C0FB011082CB010895BB274A303C
:1005B00031F4992322F4BDE2909581959F4F01C0BB
:1005C000BB27FB015527AA27880F991FAA1FA4172D
:1005D00010F0A41B83955051B9F7A05DAA3308F021
:1005E000A95DA193009779F7B111B1931192CB0155
:1005F00000C0DC01FC01672F71917723E1F732978E
:1006000004C07C916D9370836291AE17BF07C8F3ED
:060610000895F894FFCFED
:0806160074656D702E203D009B
:00000001FF
