:100000000C942A000C943C000C943C000C943C0092
:100010000C943C000C943C000C943C000C943C0070
:100020000C943C000C943C000C943C000C943C0060
:100030000C943C000C943C000C943C000C943C0050
:100040000C94C0000C943C000C943C000C943C00BC
:100050000C943C0011241FBECFE5D8E0DEBFCDBF1D
:1000600020E0A0E6B0E001C01D92A536B207E1F79E
:100070000E945C000C94DC000C94000081B380634F
:1000800081BB1DBC1CBC83EC99E097BD86BD82EA98
:100090008FBD8BE18EBD0895FC01808191818358D5
:1000A0009F4F9BBD8ABD0895FC018081918183583B
:1000B0009F4F99BD88BD0895CF93DF93CDB7DEB72D
:1000C00028970FB6F894DEBF0FBECDBF0E94AD00DB
:1000D0000E943E0081E00E94B500282F392F3A830C
:1000E000298389819A8199230CF4079695958795A0
:1000F00095958795959587959E838D83CE010596D9
:100100000E944C002FE789EA93E021508040904004
:10011000E1F700C0000080E00E94B500282F392FD1
:100120003C832B838B819C8199230CF407969595B6
:100130008795959587959595879598878F83CE0117
:1001400007960E9454002FEF80E792E021508040F4
:100150009040E1F700C00000BDCF1ABA80E487B933
:1001600086B18F6886B97894089597B18770987F23
:10017000982B97B9369A809161009091620008950A
:100180001F920F920FB60F9211242F933F938F93CC
:100190009F9324B135B1932F80E0822B909362001E
:1001A00080936100369A9F918F913F912F910F908C
:0C01B0000FBE0F901F901895F894FFCF21
:00000001FF
