S01600004E4F4B49412035353130204C43442E73726563BE
S11300000C942A000C9447000C9447000C9447006D
S11300100C9447000C9447000C9447000C94470040
S11300200C9447000C9447000C9447000C94470030
S11300300C9447000C9447000C9447000C94470020
S11300400C9447000C9447000C9447000C94470010
S11300500C94470011241FBECFE5D8E0DEBFCDBF0E
S113006012E0A0E6B0E0EAE9F3E002C005900D92E8
S1130070AC36B107D9F722E0ACE6B2E001C01D927C
S1130080A237B207E1F70E9445010C94CB010C940E
S1130090000083EB87BBC09ABE98C49A81E58DB9F2
S11300A008958FB9779BFECF0895C4980895C49A94
S11300B00895C0982FEF80E792E02150804090404F
S11300C0E1F700C00000C09A0895CF93C82FC198EB
S11300D00E9455008C2F0E945100C19A0E94570023
S11300E0CF9108950E9449000E94590081E20E9424
S11300F0650080EC0E94650087E00E94650083E152
S11301000E94650080E20E9465008CE00E94650008
S113011008958F929F92AF92BF92CF92DF92EF9207
S1130120FF920F931F93CF93DF936C01C19A0E94A8
S11301305500F60101900020E9F731975F01AC18F2
S1130140BD081A141B0454F5E12CF12C812C912CBC
S11301501FC0F801808190E08097FC01EE0FFF1F23
S1130160EE0FFF1FE80FF91FEC0FFD1FE457FF4FC1
S113017080810E9451002196C530D10551F780E05D
S11301800E945100FFEFEF1AFF0AAE14BF0431F0D2
S1130190C82DD92D86010E0D1F1DDBCF0E945700DF
S11301A0DF91CF911F910F91FF90EF90DF90CF904F
S11301B0BF90AF909F908F900895CF93DF930E944C
S11301C05500C19AC8EFD1E080E00E945100219708
S11301D02097D1F7C1980E945700DF91CF910895DD
S11301E0CF93C62F805C0E94650080E88C0F0E942C
S11301F06500CF9108951F93CF93DF93162F805CF2
S11302000E94650080E80E9465000E945500C19A22
S1130210C4E5D0E0812F0E94510021972097D1F7A7
S1130220C1980E945700DF91CF911F910895CF93F9
S1130230DF93D0E8D80F8D2F0E9465000E945500EF
S1130240C19AC0E48C2F0E9465008D2F0E94650026
S11302500E9455008FEF0E945100CF5FC63491F782
S1130260C1980E945700DF91CF91089561E080E02A
S11302700E94FB0060E885E00E94FB0083E50E9489
S1130280170180E00E94170108950E94720068E23D
S113029081E00E94F00080E690E00E94890060E026
S11302A083E00E94F0008DE790E00E9489002FEF28
S11302B089E698E1215080409040E1F700C00000B9
S11302C00E94DD00C0E00E9436011092710210927B
S11302D070028C2F682F660F660F660F681B6D5FA8
S11302E081E00E94F0004AE06CE672E080917002C6
S11302F0909171020E9496018CE692E00E9489001E
S11303002FEF89E698E1215080409040E1F700C04A
S11303100000809170029091710201969093710295
S1130320809370028530910574F6D4CFBB274A3090
S113033031F4992322F4BDE2909581959F4F0C945A
S1130340A201BB27FB015527AA27880F991FAA1FC3
S1130350A41710F0A41B83955051B9F7A05DAA33DC
S113036008F0A95DA193009779F7B111B1931192A7
S1130370CB010C94BB01DC01FC01672F7191772345
S1130380E1F7329704C07C916D9370836291AE174C
S10D0390BF07C8F30895F894FFCFE7
S113039A48616C6C6F2061686D6564203132333456
S11303AA3536373839302B3D2A2F2E2D00616263BA
S11303BA64656667686B696C6D6E6F0000000000A7
S11303CA0000005F00000007000700147F147F1478
S11303DA242A7F2A122313086462364955225000BC
S11303EA05030000001C2241000041221C001408DD
S11303FA3E081408083E080800503000000808089F
S113040A0808006060000020100804023E514945B3
S113041A3E00427F400042615149462141454B31E9
S113042A1814127F1027454545393C4A4949300179
S113043A710905033649494936064949291E0036D0
S113044A3600000056360000081422410014141421
S113045A141400412214080201510906324979414F
S113046A3E7E1111117E7F494949363E414141225E
S113047A7F4141221C7F494949417F090909013EBB
S113048A4149497A7F0808087F00417F410020409A
S113049A413F017F081422417F404040407F020CC3
S11304AA027F7F0408107F3E4141413E7F090909CA
S11304BA063E4151215E7F09192946464949493177
S11304CA01017F01013F4040403F1F2040201F3F60
S11304DA4038403F631408146307087008076151E1
S11304EA494543007F41410002040810200041416C
S11304FA7F0004020102044040404040000102041B
S113050A0020545454787F4844443838444444209E
S113051A384444487F3854545418087E0901020C5C
S113052A5252523E7F0804047800447D4000204021
S113053A443D007F1028440000417F40007C041899
S113054A04787C0804047838444444387C14141429
S113055A08081414187C7C080404084854545420C9
S113056A043F4440203C4040207C1C2040201C3C4A
S113057A4030403C44281028440C5050503C4464B9
S113058A544C44000836410000007F000000413604
S10F059A08001008081008784641467854
S9030000FC
