:100000000C942A000C943F000C943F000C943F0089
:100010000C943F000C943F000C943F000C943F0064
:100020000C943F000C943F000C943F000C943F0054
:100030000C943F000C943F000C943F000C943F0044
:100040000C943F000C943F000C943F000C943F0034
:100050000C943F0011241FBECFE5D8E0DEBFCDBF1A
:1000600010E0A0E6B0E0E8ECF3E002C005900D92ED
:10007000A237B107D9F70E9441000C94E2010C9419
:100080000000CF92DF92EF92FF920F931F93CF93D6
:10009000DF93CDB7DEB72D970FB6F894DEBF0FBE56
:1000A000CDBF0E9477010E94CD0086E0ECE6F0E033
:1000B000DE01119601900D928A95E1F761E081E0F1
:1000C0000E94B00180E690E00E94D30180EA0E9485
:1000D000D10080E00E940B01CE0101966C0100E08E
:1000E00010E07C0107C0F60181916F010E940B01B5
:1000F0000F5F1F4FF70101900020E9F73197EE19CC
:10010000FF090E171F0778F30E942B018FE19EE471
:100110000197F1F700C0000080EA0E94D10080E062
:100120000E940B0165E082E00E94B00181EA0E941A
:10013000EE006E0197E0C90ED11C00E010E0FE0158
:1001400031967F0107C00E941D01F60181936F0166
:100150000F5F1F4FF70101900020E9F73197EE196B
:10016000FF090E171F0778F30E9424010E942B013C
:10017000CE0107960E94D30180E090E02D960FB645
:10018000F894DEBF0FBECDBFDF91CF911F910F91CD
:10019000FF90EF90DF90CF90089511B88FEF80B966
:1001A000089594EA96BF06B607FEFDCF91B1987FF9
:1001B000983071F483B984E886BF06B607FEFDCF98
:1001C00081B1887F883131F0803231F482E0089546
:1001D00080E0089581E0089583E0089594EA96BF51
:1001E00006B607FEFDCF91B1987F903171F483B9C7
:1001F00084E886BF06B607FEFDCF81B1887F8034D4
:1002000031F0883431F482E0089580E0089581E08F
:10021000089583E0089583B984E886BF06B607FE93
:10022000FDCF81B1887F883221F0803321F481E0D5
:10023000089580E0089582E0089584EC86BF06B6B4
:1002400007FEFDCF83B1089584E886BF06B607FE9A
:10025000FDCF83B1089584E986BF06B604FCFDCFC7
:10026000089598B3282F207F9F70922B98BBC09839
:10027000C198C29A35E83A95F1F70000C29895E81E
:100280009A95F1F7000028B330E1839FC001112453
:10029000922F9F70892B88BBC29A85E88A95F1F7C7
:1002A0000000C298089598B3282F207F9F70922B4A
:1002B00098BBC09AC198C29A35E83A95F1F7000008
:1002C000C29895E89A95F1F7000028B330E1839F32
:1002D000C0011124922F9F70892B88BBC29A87EC92
:1002E00090E00197F1F700C00000C29808958FE0F8
:1002F00097E20197F1F700C0000087B38FEF87BB4B
:10030000C2988FE99FE00197F1F700C0000083E3F6
:100310000E94310195E89A95F1F7000082E30E946E
:10032000310185E88A95F1F7000088E20E943101E9
:1003300095E89A95F1F700008EE00E94310185E87A
:100340008A95F1F7000081E00E9431018FE99FE07A
:100350000197F1F700C0000086E00E943101089586
:10036000CF93DF9300D000D0CDB7DEB790E899836C
:1003700090EC9A8390E99B8390ED9C836150FE0101
:10038000E80FF11D8081860F0E94310187EC90E01B
:100390000197F1F700C000000F900F900F900F90A1
:1003A000DF91CF910895CF93DF93EC01888188236B
:1003B00031F021960E94530189918111FBCFDF9189
:0803C000CF910895F894FFCFDE
:1003C8006D6173736167652069732000313233345E
:0203D8003500EE
:00000001FF
