:100000000C942A000C9434000C9434000C943400AA
:100010000C9434000C9434000C9434000C94340090
:100020000C9434000C9434000C9434000C94340080
:100030000C9434000C9434000C9434000C94340070
:100040000C9434000C9434000C9434000C94340060
:100050000C94340011241FBECFE5D8E0DEBFCDBF25
:100060000E948C000C94B0000C94000011B88FEF2B
:1000700080B9089594EA96BF06B607FEFDCF91B108
:10008000987F983071F483B984E886BF06B607FE7E
:10009000FDCF81B1887F883131F0803231F482E048
:1000A000089580E0089581E0089583E0089594EA3A
:1000B00096BF06B607FEFDCF91B1987F903171F4DF
:1000C00083B984E886BF06B607FEFDCF81B1887F7D
:1000D000803431F0883431F482E0089580E008956E
:1000E00081E0089583E0089583B984E886BF06B669
:1000F00007FEFDCF81B1887F883221F0803321F463
:1001000081E0089580E0089582E0089584E986BF43
:1001100006B604FCFDCF08958AB31ABA0E943600D1
:10012000C0E0C89BFECFD4E0DC0FCF5F80E40E942C
:100130003A008C2F0E94740080E50E9457008D2F9A
:100140000E9474000E9486002FEF84E39CE02150FF
:1001500080409040E1F700C00000C899FECFE1CF99
:04016000F894FFCF41
:00000001FF
