S018000064657374616E6365206D6561737572652E73726563B3
S11300000C942A000C9447000C9447000C9447006D
S11300100C9447000C9447000C9447000C94470040
S11300200C9447000C9449000C9447000C9447002E
S11300300C9447000C9447000C9447000C94470020
S11300400C9447000C9447000C9447000C94470010
S11300500C94470011241FBECFE5D8E0DEBFCDBF0E
S113006010E0A0E6B0E0E2ECF5E002C005900D92ED
S1130070AA36B107D9F720E0AAE6B0E001C01D9284
S1130080A837B207E1F70E9460000C94DF020C94D9
S113009000001F920F920FB60F9211248F939F931B
S11300A080916A0090916B00019690936B0080930D
S11300B06A009F918F910F900FBE0F901F9018951B
S11300C080EF81BB0E94080112E4D0E2C4E061E049
S11300D081E00E94410180E690E00E946401909AD0
S11300E02AE12A95F1F700C090981DBC1CBC1EBDE6
S11300F0D8BFC8BF08B605FEFDCF1DBC1CBC81E03F
S11301008EBDD8BFC8BF10926B0010926A0008B6AB
S113011005FEFDCF66B577B580E090E00E9413023E
S113012060937400709375008093760090937700C9
S113013020E030E048E652E40E947D010E94E5019F
S113014070937300609372008091720090917300B9
S11301504AE050E06CE670E00E949F026AE081E0B1
S11301600E9441018CE690E00E9464018FEF96E1C9
S113017021E1815090402040E1F700C000000E943E
S11301807301A5CF95B3282F207F9F70922B95BB29
S1130190A898A998AA9A35E83A95F1F70000AA9880
S11301A095E89A95F1F7000025B330E1839FC001EB
S11301B01124922F9F70892B85BBAA9A85E88A9572
S11301C0F1F70000AA98089595B3282F207F9F7017
S11301D0922B95BBA89AA998AA9A35E83A95F1F773
S11301E00000AA9895E89A95F1F7000025B330E14C
S11301F0839FC0011124922F9F70892B85BBAA9ADB
S113020087EC90E00197F1F700C00000AA980895E8
S11302108FE097E20197F1F700C0000084B38FEFFD
S113022084BBAA988FE99FE00197F1F700C0000012
S113023083E30E94C20095E89A95F1F7000082E3F7
S11302400E94C20085E88A95F1F7000088E20E94C6
S1130250C20095E89A95F1F700008EE00E94C20072
S113026085E88A95F1F7000081E00E94C2008FE9D9
S11302709FE00197F1F700C0000086E00E94C200F1
S11302800895CF93DF9300D000D0CDB7DEB790E8C8
S1130290998390EC9A8390E99B8390ED9C836150C1
S11302A0FE01E80FF11D8081860F0E94C20087ECD9
S11302B090E00197F1F700C000000F900F900F90AD
S11302C00F90DF91CF910895CF93DF93EC01888154
S11302D0882331F021960E94E40089918111FBCF9B
S11302E0DF91CF91089581E00E94C2008FE99FE0E1
S11302F00197F1F700C0000008950CD0E6C0DED0ED
S113030040F0D5D030F021F45F3F19F0C7C051114F
S113031010C1CAC0EBD098F39923C9F35523B1F3A4
S1130320951B550BBB27AA2762177307840738F060
S11303309F5F5F4F220F331F441FAA1FA9F333D0BF
S11303400E2E3AF0E0E830D091505040E695001C73
S1130350CAF729D0FE2F27D0660F771F881FBB1F2F
S1130360261737074807AB07B0E809F0BB0B802D09
S1130370BF01FF2793585F4F2AF09E3F510568F055
S11303808DC0D7C05F3FECF3983EDCF3869577953C
S11303906795B795F7959F5FC9F7880F911D969557
S11303A0879597F90895E1E0660F771F881FBB1FB3
S11303B0621773078407BA0720F0621B730B840B60
S11303C0BA0BEE1F88F7E095089598D088F09F57F0
S11303D090F0B92F9927B751A0F0D1F0660F771F8D
S11303E0881F991F1AF0BA95C9F712C0B13081F06D
S11303F09FD0B1E008959CC0672F782F8827B85FFD
S113040039F0B93FCCF3869577956795B395D9F7CD
S11304103EF490958095709561957F4F8F4F9F4FD7
S11304200895E89409C097FB3EF4909580957095E3
S113043061957F4F8F4F9F4F9923A9F0F92F96E92C
S1130440BB279395F695879577956795B795F111A1
S1130450F8CFFAF4BB0F11F460FF1BC06F5F7F4F3E
S11304608F4F9F4F16C0882311F096E911C0772350
S113047021F09EE8872F762F05C0662371F096E859
S1130480862F70E060E02AF09A95660F771F881F28
S1130490DAF7880F9695879597F9089597F99F67E6
S11304A080E870E060E008959FEF80EC08950024F8
S11304B00A941616170618060906089500240A94C5
S11304C012161306140605060895092E0394000C4B
S11304D011F4882352F0BB0F40F4BF2B11F460FFDA
S11304E004C06F5F7F4F8F4F9F4F089557FD905803
S11304F0440F551F59F05F3F71F04795880F97FBE4
S1130500991F61F09F3F79F087950895121613069D
S11305101406551FF2CF4695F1DF08C016161706CC
S11305201806991FF1CF8695710561050894089501
S1130530E894BB2766277727CB0197F908954532BE
S1130540510520F4423010F00C94AA02FB011082F1
S1130550CB010895BB274A3031F4992322F4BDE23C
S1130560909581959F4F0C94B602BB27FB015527AC
S1130570AA27880F991FAA1FA41710F0A41B8395FC
S11305805051B9F7A05DAA3308F0A95DA193009773
S113059079F7B111B1931192CB010C94CF02DC0124
S11305A0FC01672F71917723E1F7329704C07C91A6
S11305B06D9370836291AE17BF07C8F30895F894E2
S10505C0FFCF67
S10D05C264657374616E63653D00A7
S9030000FC
