S00E0000736C617665322E73726563C9
S11300000C942A000C9434000C9434000C943400A6
S11300100C9434000C9434000C9434000C9434008C
S11300200C9434000C9434000C9434000C9434007C
S11300300C9434000C9434000C9434000C9434006C
S11300400C9434000C9434000C9434000C9434005C
S11300500C94340011241FBECFE5D8E0DEBFCDBF21
S11300600E946B000C9477000C94000082B984EC1D
S113007086BF089506B607FEFDCF81B1982F987FFD
S1130080807F803641F0983A41F0903B41F08037D0
S113009089F782E0089580E0089581E0089581E081
S11300A0089584EC86BF06B607FEFDCF91B1892F73
S11300B0887E803811F483B10895883811F483B1AF
S11300C00895987F903A29F486B7806886BF8FEFA9
S11300D008958EEF089580E50E9436008FEF81BB6E
S11300E012BA0E943A000E94510082BBFACFF894DF
S10500F0FFCF3C
S9030000FC
